:020000040800F2
:10000000987600209D0100081D460008092F000871
:1000100019460008F9090008854D00080000000095
:100020000000000000000000000000000147000880
:10003000CD0B000800000000914600083947000879
:10004000B7010008B7010008B7010008B7010008B0
:10005000B7010008B7010008B7010008B7010008A0
:10006000B7010008B7010008B7010008B701000890
:10007000B7010008B7010008B7010008B701000880
:10008000FD090008B7010008B7010008B701000822
:10009000B7010008B7010008B7010008B701000860
:1000A000B7010008B7010008B7010008B701000850
:1000B0004D480008B7010008B7010008B701000863
:1000C000B7010008B7010008B7010008B701000830
:1000D000B7010008B7010008B7010008B701000820
:1000E000B7010008B7010008B7010008B701000810
:1000F000B7010008B7010008B7010008B701000800
:10010000B7010008B7010008B7010008B7010008EF
:10011000B7010008B7010008B7010008A5480008AA
:10012000B7010008B70100080D0A0008B701000870
:10013000B7010008B7010008B7010008B7010008BF
:10014000B7010008B7010008B7010008B7010008AF
:10015000B7010008B7010008B7010008B70100089F
:10016000B7010008B7010008B7010008B70100088F
:10017000B7010008B7010008B7010008000000003F
:10018000B7010008B7010008DFF80CD000F004FC4C
:1001900000480047B1510008987600200648804783
:1001A00006480047FEE7FEE7FEE7FEE7FEE7FEE75C
:1001B000FEE7FEE7FEE7FEE7394800088901000890
:1001C0002DE9F05F0546002092469B46884606468C
:1001D000814640241BE0284641464746224600F01F
:1001E0008CFA53465A46C01A914110D3114618460C
:1001F000224600F073FA2D1A67EB01084F4622469B
:100200000120002100F06AFA17EB00094E41201E80
:10021000A4F10104DFDC484631462A464346BDE8E6
:10022000F09F40EA01039B0703D009E008C9121FB1
:1002300008C0042AFAD203E011F8013B00F8013BA0
:10024000521EF9D27047D2B201E000F8012B491ECC
:10025000FBD270470022F6E710B513460A46044663
:100260001946FFF7F0FF204610BD2DE9FE4F8046EE
:1002700081EA0300C00F0C46009021F0004123F0FA
:100280000045B8EB0200A94105D240462146904600
:100290001C460B46024623F00040104347D0270D72
:1002A000C7F30A00C3F30A510290401A0190402894
:1002B0006BDAC3F3130040F4801B0098924620B120
:1002C0000023D2EB030A63EB0B0B01985946C0F1F4
:1002D0004002504600F002FA06460D465046594686
:1002E000019A00F01AFA10EB08006141002487EA35
:1002F000115284EAE7731A4340D0009A62B3019A1C
:10030000012A4FEA075215DC001B61EB02014FF096
:10031000004202EA0752CDE90042001C41F580117B
:1003200032462B4600F051FA03B0BDE8F08F40464C
:100330002146F9E7001B61EB0201001C41F5801327
:1003400000185B412018A2F5001747EB030140EAB3
:10035000D570B6196D4111E06D084FEA360645EAD1
:10036000C0754FEA0752001B61EB0201001C41F50A
:10037000801149084FEA30000019514132462B469E
:1003800003B0BDE8F04F00F011BA00980122400020
:100390000023D0EB020263EBE073009821464FEAA2
:1003A000E074B8EB000061EB0401E9E783F000437F
:1003B0005BE781F0004158E72DE9FE4F81EA030435
:1003C00004F0004421F0004100944FF0000B23F0B2
:1003D000004350EA01045ED052EA03045BD0C3F349
:1003E0000A54C1F30A552C44A4F2F3340194A0FB3F
:1003F0000254C1F3130141F48011C3F3130343F416
:10040000801301FB024400FB034E840A970A44EA6E
:10041000815447EA8357A4FB076802958D0A05FBC0
:1004200007854FEA932C04FB0C542705029D4FEAE5
:10043000065847EA1637B5EB08056EEB070C870E32
:10044000920E47EA811742EA8312A7FB0201B6EB3C
:100450000B0164EB00042B0D43EA0C335E1844EBF4
:100460001C50DA465146E7FB0201C5F313044FEA7C
:100470000B3343EA14534FEA0432019C43EA060368
:10048000A4F10C040294009CCDE900B400F09DF9A5
:1004900003B0BDE8F08F00200146F9E72DE9F04DEB
:1004A00081EA030404F0004B21F0004514464FF0AC
:1004B000000A23F0004150EA050220D054EA01026C
:1004C0001DD0C5F30A570246C5F31303C1F3130049
:1004D000C1F30A5640F4801543F48013A7EB0608D5
:1004E000101BD64608F2FD3873EB050002D308F165
:1004F000010801E092185B41B8F1000F03DA002017
:100500000146BDE8F08D00204FF480110646844678
:100510000EE0171B73EB050705D3121B63EB0503F6
:1005200006434CEA010C49084FEA300092185B413F
:1005300050EA0107EDD152EA030012D082EA04002A
:1005400083EA0501084305D0101BAB4106D2012206
:10055000002306E000224FF0004302E06FF00102AA
:1005600053101AEB06004CEB085110EB0A0041EB5C
:100570000B01BDE8F04D00F019B930B5041E71F162
:10058000000404DB4FF00044404264EB0101141E00
:1005900073F1000405DB1C464FF00043524263EB4D
:1005A0000403801A994101D3012030BD002030BDE1
:1005B00030B5041E71F1000404DB4FF000444042EA
:1005C00064EB0101141E73F1000405DB1C464FF0BF
:1005D0000043524263EB0403101A8B4101D2012005
:1005E00030BD002030BD30B5041E71F1000404DBC5
:1005F0004FF00044404264EB0101141E73F100040B
:1006000005DB1C464FF00043524263EB0403101A13
:100610008B4101D3012030BD002030BD30B5041E18
:1006200071F1000404DB4FF00044404264EB01012F
:10063000141E73F1000405DB1C464FF000435242C8
:1006400063EB0403801A994101D2012030BD0020E0
:1006500030BD00F0004230F000400AD0C10D01F57D
:100660006071C0F3160042EA0151C208400711430D
:10067000704700200146704701F0004330B421F07C
:10068000004150EA010206D00A0DA2F56072C1F3E2
:100690001301002A02DC30BC00207047440F44EAFA
:1006A000C104C100E01830BC00EBC25000F047B8F4
:1006B00030B50B46014600202022012409E021FA32
:1006C00002F59D4205D303FA02F5491B04FA02F52F
:1006D0002844151EA2F10102F1DC30BD202A04DB02
:1006E000203A00FA02F1002070479140C2F1200345
:1006F00020FA03F3194390407047202A04DB203A84
:1007000021FA02F00021704721FA02F3D040C2F131
:1007100020029140084319467047202A06DBCB1778
:10072000203A41FA02F043EAE07306E041FA02F3AC
:10073000D040C2F120029140084319467047002979
:10074000A8BF7047401C490008BF20F00100704757
:1007500010B4B0FA80FC00FA0CF050EA010404BFB7
:1007600010BC704749B1CCF1200421FA04F411FA0D
:100770000CF118BF012121430843A3EB0C01CB1D51
:100780004FEA00614FEA102042BF002010BC7047C2
:1007900000EBC35010440029A4BF10BC7047401C9C
:1007A000490008BF20F0010010BC704710B5141EAE
:1007B00073F1000408DA401C41F1000192185B411A
:1007C0001A4301D120F0010010BD2DE9F04D9246F1
:1007D0009B4611B1B1FA81F202E0B0FA80F2203208
:1007E0009046FFF77BFF04460F4640EA0A0041EAC5
:1007F0000B0153465A46084313D0114653EA0100F1
:1008000019D0C8F140025046FFF777FF05460E4663
:10081000504659464246FFF761FF084305D0012084
:1008200004E020463946BDE8F08D0020054346EA45
:10083000E0762C4337430A986305E40AA0EB0800EE
:100840000022FD0A44EA47540A3002D5002001463E
:10085000E9E7010510196941DDE908450019694119
:10086000BDE8F04DA2E72DE9F04D00231A461B1A12
:100870008A4103DB00200146BDE8F08DC1F30A5236
:10088000C1F3130141F480154FF0000BD10702D1E1
:1008900000186D41521E0027044640F2FF113846F1
:1008A00001EB620A3E468046024600204FF480116A
:1008B000FFF723FFC2197141BB1846EB0100B4EBEF
:1008C000030C75EB000C04D3E41A65EB0005174626
:1008D0000E46241908F101006D4180463428E3DDFD
:1008E000F91946EB0600091BA84103D24FF0FF326D
:1008F000134601E0002213461BEB070046EB0A51AA
:10090000BDE8F04DFFF752BFC1F30A52C1F3130126
:1009100040F2FF3341F480119A4202DA002001468E
:10092000704740F233439A42A2F2334202DC524211
:10093000FFF7E3BEFFF7D2BE30B5041E71F100042D
:1009400004DB4FF00044404264EB0101141E73F1DC
:10095000000405DB1C464FF00043524263EB0403E6
:100960008B4208BF824230BD30B5041E71F10004D5
:1009700004DB4FF00044404264EB0101141E73F1AC
:10098000000405DB1C464FF00043524263EB0403B6
:10099000994208BF904230BD064C074D06E0E06822
:1009A00040F0010394E8070098471034AC42F6D3B6
:1009B000FFF7EEFBF49A0008149B000830B58C1882
:1009C00010F8012B12F00F0301D110F8013B1209AE
:1009D00006D110F8012B03E010F8015B01F8015B70
:1009E0005B1EF9D101E001F8013B521EFBD1A1428F
:1009F000E6D3002030BD0000FFE7FEE780B540F6FB
:100A0000B840C2F2000000F063F980BD80B540F646
:100A10005840C2F2000000F05BF980BD82B0019046
:100A20000198007810384AF6AB21CAF6AA21A0FB3B
:100A3000010109090091009949F6BC22C0F60002A3
:100A4000515C019AD1650099042907D3FFE7019809
:100A50000168042262F30901816506E001980168DA
:100A600040F2FF3291438165FFE70198806D02B04B
:100A70007047000086B0059000208DF8130005989F
:100A8000806A039005988069002823D1FFE70398C6
:100A9000032802901CD80299DFE801F0020E021927
:100AA000059890F82F00C007002804D0FFE7012028
:100AB0008DF81300FFE70CE00598C06AB0F1C07F25
:100AC00004D1FFE701208DF81300FFE701E000E00B
:100AD000FFE747E005988069B0F5005F26D1FFE7A2
:100AE0000398032801901FD80199DFE801F002065E
:100AF000021201208DF8130017E0059890F82F00DE
:100B0000C007002804D0FFE701208DF81300FFE79D
:100B10000BE00598C06AB0F1C07F04D1FFE7012067
:100B20008DF81300FFE700E0FFE71AE003980328C1
:100B3000009004D3FFE70098032804D00FE00120C1
:100B40008DF813000CE0059890F82F00C0070028DE
:100B500004D0FFE701208DF81300FFE700E0FFE776
:100B6000FFE7FFE79DF8130006B0704781B00A4623
:100B700003468DF803008DF8021040F2B450C2F223
:100B80000000552101709DF8031041709DF802107E
:100B900081705621C17001B07047000081B00A46D3
:100BA00003468DF803008DF8021041F28030C2F246
:100BB0000000552101709DF8031041709DF802104E
:100BC00081705621C17001B070470000704700006D
:100BD00081B0EFF3108072B60090FFE7FEE70000EF
:100BE00082B08DED010A9DED010AB5EE400AF1EEED
:100BF00010FA05DDFFE79DED010A8DED000A06E024
:100C00009DED010AB1EE400A8DED000AFFE79DED72
:100C1000000A8DED010A9DED010A02B07047000047
:100C200082B08DED010A9DED010AB5EE400AF1EEAC
:100C300010FA05DDFFE79DED010A8DED000A06E0E3
:100C40009DED010AB1EE400A8DED000AFFE79DED32
:100C5000000A8DED010A9DED010A02B07047000007
:100C600080B586B00590002004900DF10A0001A91E
:100C700002F08EFDFFE70498022824DCFFE70498C9
:100C80000DF10A0131F9101000EE101AB8EEC00A89
:100C90009FED0E1A80EE010A059901EB800080EDB0
:100CA000000A049801A931F9101000EE101AB8EEEC
:100CB000C00A059901EB800080ED030AFFE7049864
:100CC00001300490D7E706B080BD00BF33338341C5
:100CD00080B586B005900020039040F20800C2F273
:100CE0000000006848F2B511C1F64E31A0FB0101C9
:100CF000890A02910599896D019101990968049108
:100D00000499059AD26DD140090700291BD5FFE748
:100D10000598006800684007002813D5FFE705988C
:100D20000068016821F0040101600598C06D082188
:100D300001FA00F0019988600598416D41F00101C8
:100D40004165FFE7FFE704980599C96DC840C007F2
:100D5000002815D0FFE705980068406900060028C4
:100D60000DD5FFE70598C06D012101FA00F001994A
:100D700088600598416D41F002014165FFE7FFE79A
:100D800004980599C96DC8404007002815D5FFE7AC
:100D9000059800680068800700280DD5FFE70598D2
:100DA000C06D042101FA00F0019988600598416D39
:100DB00041F004014165FFE7FFE704980599C96D1B
:100DC000C840C00600284BD5FFE7059800680068BA
:100DD0000007002843D5FFE70598C06D102101FAF0
:100DE00000F00199886005980068006840030028B9
:100DF0001CD5FFE7059800680068000300280AD4A6
:100E0000FFE70598006C002804D0FFE70598016C07
:100E10008847FFE709E00598806C002804D0FFE7C9
:100E20000598816C8847FFE7FFE717E005980068A1
:100E30000068C005002807D4FFE70598006801682E
:100E400021F008010160FFE70598006C002804D03C
:100E5000FFE70598016C8847FFE7FFE7FFE7FFE73B
:100E600004980599C96DC8408006002840F1958016
:100E7000FFE7059800680068C006002840F18C80F4
:100E8000FFE70598C06D202101FA00F00199886004
:100E9000059890F83500052838D1FFE705980068D7
:100EA000016821F01601016005980068416921F090
:100EB000800141610598006C002805D1FFE7059885
:100EC000806C002807D0FFE705980068016821F0D2
:100ED00008010160FFE70598C06D3F2101FA00F0AD
:100EE000019988600598012180F83510FFE7059881
:100EF000002180F83410FFE70598006D002804D029
:100F0000FFE70598016D8847FFE781E005980068D5
:100F10000068400300281CD5FFE7059800680068BA
:100F2000000300280AD4FFE70598406C002804D08D
:100F3000FFE70598416C8847FFE709E00598C06B1B
:100F4000002804D0FFE70598C16B8847FFE7FFE75B
:100F500021E0059800680068C005002811D4FFE76B
:100F600005980068016821F01001016005980121D1
:100F700080F83510FFE70598002180F83410FFE76E
:100F8000FFE70598C06B002804D0FFE70598C16B08
:100F90008847FFE7FFE7FFE7FFE70598406D002878
:100FA00036D0FFE70598406DC007002826D0FFE740
:100FB0000598052180F8351005980068016821F032
:100FC00001010160FFE70398013003900299884214
:100FD00001D9FFE707E0FFE7059800680068C00750
:100FE0000028F0D1FFE70598012180F83510FFE7D0
:100FF0000598002180F83410FFE7FFE70598C06CE2
:10100000002804D0FFE70598C16C8847FFE7FFE799
:1010100006B080BD80B586B004900020039000F03B
:10102000DFFA02900498002804D1FFE701208DF830
:101030001700A7E00498406A002801D0FFE7FFE707
:101040000498022180F83510FFE70498002180F809
:101050003410FFE704980068016821F00101016085
:10106000FFE7049800680068C007002812D0FFE777
:1010700000F0B6FA0299401A06280AD3FFE704984E
:10108000202141650498032180F835108DF8171050
:1010900078E0E6E70498006800680390039848F257
:1010A0003F01CFF210010840039004984168826824
:1010B000C368D0F810C01143194341EA0C014269DA
:1010C000114382691143C2691143006A08430399BD
:1010D000084303900498406A042808D1FFE7049865
:1010E000C16A006B0843039908430390FFE7039824
:1010F000049909680860049800684069039003989F
:1011000020F0070003900498406A03990843039075
:101110000498406A04281CD1FFE70498806A039968
:10112000084303900498C06A002811D0FFE7049890
:10113000FFF7A0FC00280AD0FFE704984021416592
:101140000498012180F835108DF817101AE0FFE798
:10115000FFE703980499096848610498FFF75EFC6B
:1011600001900498C06D3F2101FA00F00199886058
:101170000498002141650498012280F835208DF8FB
:101180001710FFE79DF8170006B080BD8EB00D90D8
:101190000C9100200A90099008900B90FFE70B98A3
:1011A0000F2800F2D281FFE70B98012101FA00F02D
:1011B0000A900C9800680A990840099009980A99C1
:1011C000884240F0BD81FFE70C98406800F00300C2
:1011D000012807D0FFE70C98406800F003000228C0
:1011E0002FD1FFE70D98806808900B9840000321ED
:1011F00001FA00F0089921EA000008900C98C068F4
:101200000B994900884008990843089008980D995F
:1012100088600D98406808900B98012101FA00F051
:10122000089921EA000008900C984068C0F300106B
:101230000B99884008990843089008980D994860D0
:10124000FFE70C98406800F00300032818D0FFE780
:101250000D98C06808900B984000032101FA00F037
:10126000089921EA000008900C9880680B994900C1
:10127000884008990843089008980D99C860FFE7CE
:101280000C98406800F00300022826D1FFE70D9873
:101290000B996FF0030202EA51010844006A0890BA
:1012A0000B9800F0070080000F2101FA00F0089968
:1012B00021EA000008900C9800690B9901F00701E1
:1012C0008900884008990843089008980D990B9B5D
:1012D00002EA530211440862FFE70D980068089083
:1012E0000B984000032101FA00F0089921EA000060
:1012F00008900C98406800F003000B994900884062
:1013000008990843089008980D9908600C9880790E
:101310008007002800F01381FFE7FFE70020079017
:1013200043F64400C4F20200016841F480410160C8
:10133000006800F4804007900798FFE70B9820F0C2
:10134000030043F60801C4F20101405808900B98CD
:1013500000F0030080000F2101FA00F0089921EA53
:10136000000008900D980021C4F20201884203D1C8
:10137000FFE7002006905EE00D9840F20041C4F2C5
:101380000201884203D1FFE70120059050E00D984B
:1013900040F60001C4F20201884203D1FFE70220B7
:1013A000049042E00D9840F60041C4F202018842E8
:1013B00003D1FFE70320039034E00D9841F20001D0
:1013C000C4F20201884203D1FFE70420029026E024
:1013D0000D9841F20041C4F20201884203D1FFE7B7
:1013E0000520019018E00D9841F60001C4F20201B9
:1013F000884203D1FFE7062000900AE00D9841F6ED
:101400000041C4F202010822884208BF072200926C
:10141000FFE700980190FFE701980290FFE702982C
:101420000390FFE703980490FFE704980590FFE717
:1014300005980690FFE70698C0B20B9901F00301EA
:101440008900884008990843089008980B9921F072
:10145000030143F60802C4F20102885043F6084033
:10146000C4F20100006808900998089921EA000078
:1014700008900C988079C006002805D5FFE70998E8
:10148000089908430890FFE7089843F60841C4F21A
:101490000101086043F60C40C4F2010000680890A6
:1014A0000998089921EA000008900C988079800634
:1014B000002805D5FFE70998089908430890FFE739
:1014C000089843F60C41C4F20101086043F6044059
:1014D000C4F20100006808900998089921EA000008
:1014E00008900C9880798007002805D5FFE70998B7
:1014F000089908430890FFE7089843F60441C4F2AE
:101500000101086043F60040C4F201000068089041
:101510000998089921EA000008900C988079C00782
:10152000002805D0FFE70998089908430890FFE7CD
:10153000089843F60041C4F201010860FFE7FFE7A5
:10154000FFE70B9801300B9029E60EB070470000C2
:1015500082B00A460190ADF8021001980069BDF80A
:101560000210084204D0FFE701208DF8010003E0DB
:1015700000208DF80100FFE79DF8010002B07047E0
:1015800083B00A460290ADF80610029840690090B8
:101590000098BDF8061000EA010321EA000040EAC5
:1015A00003400299886103B07047000082B013467F
:1015B0008C460190ADF802108DF801209DF80100D5
:1015C000002805D0FFE7BDF802000199886105E019
:1015D000BDF80200000401998861FFE702B070477E
:1015E00045F28830C2F200000068704740F2FC40CB
:1015F000C2F20000007845F28831C2F200010A68A8
:10160000104408607047000080B582B043F6004087
:10161000C4F20200016841F400710160016841F404
:1016200080610160016841F480710160032000F075
:10163000DFF80F2000F006F8019000F081F800209C
:1016400002B080BD80B58EB00D9000200690059050
:10165000FFE70020029043F64000C4F20200016858
:1016600041F020010160006800F020000290029823
:10167000FFE708A804A900F0F5F90B980690069872
:10168000002804D1FFE700F01DFA079004E000F005
:1016900019FA40000790FFE707984DF68361C4F2FE
:1016A0001B31A0FB01014FF0FF3202EB914105918C
:1016B00040F66451C2F2000141F20042C4F200025D
:1016C0000A6040F2E732CA60059A4A6000220A6165
:1016D0008A608A610190084600F08CFE8DF80F0048
:1016E0009DF80F00002826D1FFE740F66450C2F2B3
:1016F000000000F0F9FE8DF80F009DF80F000028A3
:1017000018D1FFE7372000F047F80D980F280CD8C4
:10171000FFE70D993720002200F04AF80D9840F2BB
:101720000051C2F20001086003E001208DF80F00B3
:10173000FFE7FFE7FFE79DF80F000EB080BD000058
:1017400080B582B0FFE70020019043F64400C4F268
:101750000200016841F480410160006800F48040AB
:1017600001900198FFE7FFE70020009043F640005A
:10177000C4F20200016841F080510160006800F08D
:10178000805000900098FFE76FF001000F210022C9
:1017900000F00EF802B080BD80B582B001468DF831
:1017A00007009DF90700009103F014FB02B080BD13
:1017B00080B588B003468DF81F0006910592002081
:1017C0000490039303F020FB04909DF91F000499FB
:1017D000069A059B0290084611461A4602F020FF21
:1017E000029901900846019903F016FB08B080BDEC
:1017F00080B582B00190019803F030FB02B080BD4B
:1018000080B584B0029001910298002804D1FFE7CE
:1018100001208DF80F0021E1019843F60041C4F248
:101820000201096801F00701884212D9FFE7019817
:1018300043F60041C4F202010870086800F0070096
:101840000199884204D0FFE701208DF80F0005E1DF
:10185000FFE702980078800700282AD5FFE7029862
:1018600000784007002809D5FFE743F60800C4F2D6
:101870000200016841F4E0510160FFE7029800783E
:101880000007002809D5FFE743F60800C4F202006C
:10189000016841F460410160FFE743F60800C4F2CB
:1018A0000200016821F0F001029A92681143016080
:1018B000FFE702980078C00700286ED0FFE7029883
:1018C0004068012811D1FFE743F60000C4F202008E
:1018D000006800F400300021B1EB504F04D1FFE765
:1018E00001208DF80F00B9E02CE002984068022832
:1018F00005D0FFE702984068032811D1FFE743F6BF
:101900000000C4F20200006800F000700021B1EB9A
:10191000506F04D1FFE701208DF80F009EE010E02A
:1019200043F60000C4F20200006800F0020000214B
:10193000B1EB500F04D1FFE701208DF80F008DE0CF
:10194000FFE7FFE743F60800C4F20200016821F058
:101950000301029A526811430160FFF741FE0090B3
:10196000FFE743F60800C4F20200006800F00C0034
:1019700002994968B0EB810F0ED0FFE7FFF730FE08
:101980000099401A41F28931884204D3FFE70320CD
:101990008DF80F0062E0E4E7FFE7019843F60041AD
:1019A000C4F20201096801F00701884212D2FFE780
:1019B000019843F60041C4F202010870086800F083
:1019C00007000199884204D0FFE701208DF80F003D
:1019D00044E0FFE702980078400700280CD5FFE7B5
:1019E00043F60800C4F20200016821F4E051029AB3
:1019F000D26811430160FFE70298007800070028D1
:101A00000DD5FFE743F60800C4F20200016821F497
:101A10006041029A126941EAC2010160FFE700F0E9
:101A200075F843F60801C4F202010968C9B2090950
:101A300049F6A422C0F60002515CC84040F20801F9
:101A4000C2F20001086040F20050C2F200000068DB
:101A5000FFF7F8FD00218DF80F10FFE79DF80F004C
:101A600004B080BD82B00190009101980F21016007
:101A700043F60800C4F20200016801F00301019A74
:101A80005160016801F0F001019A9160016801F470
:101A9000E051019AD160006800F46040C0080199EB
:101AA000086143F60040C4F20200006800F007003D
:101AB0000099086002B0704740F20800C2F20000CE
:101AC0000068704780B5FFF7F7FF43F60801C4F2DE
:101AD00002010968C1F3822149F6B422C0F600026E
:101AE000515CC84080BD000080B5FFF7E5FF43F6BC
:101AF0000801C4F20201096889B2490B49F6B4220F
:101B0000C0F60002515CC84080BD000080B586B0C0
:101B10000020059004900390029043F60800C4F260
:101B20000200006800F00C0001460028019108D076
:101B3000FFE7019804280AD0FFE7019808280CD095
:101B40004FE042F20040C0F2F40002904FE041F258
:101B50000020C0F27A00029049E043F60400C4F28B
:101B60000200016801F03F01059100684002002871
:101B700013D5FFE743F60400C4F202000068C0F387
:101B8000881041F20021C0F27A01A0FB0101059A00
:101B90000023FEF715FB049012E043F60400C4F2A4
:101BA00002000068C0F3881042F20041C0F2F40164
:101BB000A0FB0101059A0023FEF702FB0490FFE75A
:101BC00043F60400C4F20200006800F44030022131
:101BD00001EBD030039004980399B0FBF1F0029030
:101BE00005E042F20040C0F2F4000290FFE70298E4
:101BF00006B080BD80B586B004900498002804D15A
:101C0000FFE701208DF8170055E304980078C0071E
:101C1000002800F0A780FFE743F60800C4F20200A6
:101C2000006800F00C00042813D0FFE743F608001A
:101C3000C4F20200006800F00C0008281FD1FFE782
:101C400043F60400C4F2020000684002002816D5E2
:101C5000FFE743F60000C4F20200006800F4003021
:101C60000021B1EB504F09D0FFE7049840680028ED
:101C700004D1FFE701208DF817001CE371E0FFE7B6
:101C800004984068B0F5803F09D1FFE743F60000B3
:101C9000C4F20200016841F48031016020E0049840
:101CA0004068B0F5A02F0DD1FFE743F60000C4F265
:101CB0000200016841F480210160016841F4803133
:101CC00001600CE043F60000C4F20200016821F458
:101CD00080310160016821F480210160FFE7FFE7A6
:101CE000FFE70498406800281DD0FFE7FFF778FC65
:101CF0000390FFE743F60000C4F20200006800F41E
:101D000000300021B1EB504F0CD1FFE7FFF768FC2A
:101D10000399401A652804D3FFE703208DF81700C4
:101D2000C9E2E7E71CE0FFF75BFC0390FFE743F63F
:101D30000000C4F20200006800F400300021B1EBA2
:101D4000504F0CD0FFE7FFF74BFC0399401A652872
:101D500004D3FFE703208DF81700ACE2E7E7FFE7C5
:101D6000FFE7FFE7049800788007002840F197809C
:101D7000FFE743F60800C4F20200006810F00C0F01
:101D800013D0FFE743F60800C4F20200006800F039
:101D90000C0008282CD1FFE743F60400C4F202002F
:101DA00000684002002823D4FFE743F60000C4F295
:101DB0000200006800F002000021B1EB500F09D0D2
:101DC000FFE70498C068012804D0FFE701208DF8E0
:101DD000170070E243F60000C4F20200016821F02F
:101DE000F801049A126941EAC2010160FFE755E077
:101DF0000498C06800282ED0FFE70020C4F24720D6
:101E000001210160FFF7ECFB0390FFE743F60000C0
:101E1000C4F20200006800F002000021B1EB500F94
:101E20000CD1FFE7FFF7DCFB0399401A032804D32A
:101E3000FFE703208DF817003DE2E7E743F60000D7
:101E4000C4F20200016821F0F801049A126941EA23
:101E5000C201016021E00020C4F24720002101609E
:101E6000FFF7BEFB0390FFE743F60000C4F2020059
:101E7000006800F002000021B1EB500F0CD0FFE72A
:101E8000FFF7AEFB0399401A032804D3FFE70320B2
:101E90008DF817000FE2E7E7FFE7FFE7FFE7049899
:101EA0000078000700284CD5FFE704984069002817
:101EB00023D0FFE740F68060C4F247200121016093
:101EC000FFF78EFB0390FFE743F67400C4F20200B5
:101ED000006800F002000021B1EB500F0CD1FFE7C9
:101EE000FFF77EFB0399401A032804D3FFE7032082
:101EF0008DF81700DFE1E7E722E040F68060C4F2EA
:101F0000472000210160FFF76BFB0390FFE743F6DA
:101F10007400C4F20200006800F002000021B1EB7E
:101F2000500F0CD0FFE7FFF75BFB0399401A032823
:101F300004D3FFE703208DF81700BCE1E7E7FFE7D4
:101F4000FFE7049800784007002840F1CF80FFE7C2
:101F500000208DF8070043F64000C4F2020000683C
:101F6000C000002815D4FFE7FFE70020009043F6EB
:101F70004000C4F20200016841F080510160006835
:101F800000F0805000900098FFE701208DF80700D6
:101F9000FFE747F20000C4F200000068C005002817
:101FA00022D4FFE747F20000C4F20000016841F4C8
:101FB00080710160FFF714FB0390FFE747F2000018
:101FC000C4F200000068C00500280CD4FFE7FFF74A
:101FD00007FB0399401A032804D3FFE703208DF879
:101FE000170068E1EAE7FFE7FFE704988068012847
:101FF00009D1FFE743F67000C4F20200016841F026
:10200000010101601FE00498806805280DD1FFE7F9
:1020100043F67000C4F20200016841F0040101605F
:10202000016841F0010101600CE043F67000C4F268
:102030000200016821F001010160016821F0040142
:102040000160FFE7FFE7FFE70498806800281FD0E2
:10205000FFE7FFF7C5FA0390FFE743F67000C4F20D
:102060000200006800F002000021B1EB500F0ED119
:10207000FFE7FFF7B5FA0399401A41F28931884228
:1020800004D3FFE703208DF8170014E1E5E71EE015
:10209000FFF7A6FA0390FFE743F67000C4F20200D0
:1020A000006800F002000021B1EB500F0ED0FFE7F6
:1020B000FFF796FA0399401A41F28931884204D316
:1020C000FFE703208DF81700F5E0E5E7FFE79DF84F
:1020D0000700012809D1FFE743F64000C4F20200DF
:1020E000016821F080510160FFE7FFE704988069F3
:1020F000002800F0DC80FFE743F60800C4F202008D
:10210000006800F00C00082800F08580FFE70498C4
:10211000806902285CD1FFE76020C4F247200021DB
:102120000160FFF75DFA0390FFE743F60000C4F299
:102130000200006800F000700021B1EB506F0CD07D
:10214000FFE7FFF74DFA0399401A032804D3FFE78E
:1021500003208DF81700AEE0E7E70498C169026A32
:10216000436AD0F828C0114341EA83114FEACC32C8
:102170004FF6FF739A43A2F580321143C06A41EAD9
:10218000006043F60401C4F2020108606020C4F25A
:10219000472001210160FFF723FA0390FFE743F690
:1021A0000000C4F20200006800F000700021B1EBF2
:1021B000506F0CD1FFE7FFF713FA0399401A032879
:1021C00004D3FFE703208DF8170074E0E7E721E070
:1021D0006020C4F2472000210160FFF701FA03905C
:1021E000FFE743F60000C4F20200006800F0007050
:1021F0000021B1EB506F0CD0FFE7FFF7F1F9039925
:10220000401A032804D3FFE703208DF8170052E09B
:10221000E7E7FFE74AE004988069012804D1FFE777
:1022200001208DF8170046E043F60400C4F20200D6
:102230000068029004988069012831D0FFE7029875
:1022400000F480000499C969884229D1FFE7029807
:1022500000F03F000499096A884221D1FFE7029803
:1022600047F6C07108400499496AB0EB811F17D145
:10227000FFE7029800F440300499896AC9034FF6D9
:10228000FF729143A1F58031884209D1FFE702989E
:1022900000F070600499C96AB0EB016F04D0FFE7E9
:1022A00001208DF8170006E0FFE7FFE7FFE70020B9
:1022B0008DF81700FFE79DF8170006B080BD0000FD
:1022C00081B0009001B0704781B0009001B07047BC
:1022D00085B003900291FFE7039890F83C00012835
:1022E00004D1FFE702208DF813007EE0039801215E
:1022F00080F83C10FFE7FFE70398022180F83D10CB
:102300000398006840680190039800688068009016
:10231000019820F07000019002980068019908432C
:1023200001900198039909684860039800680021AA
:10233000C4F2010188423CD0FFE703980068B0F185
:10234000804F36D0FFE70398006840F20041C4F2A6
:10235000000188422DD0FFE70398006840F6000195
:10236000C4F20001884224D0FFE70398006840F6D9
:102370000041C4F2000188421BD0FFE703980068C7
:1023800040F20041C4F20101884212D0FFE70398F5
:10239000006844F20001C4F20101884209D0FFE75D
:1023A0000398006841F60001C4F2000188420ED192
:1023B000FFE7009820F080000090029840680099A4
:1023C000084300900098039909688860FFE7039824
:1023D000012180F83D10FFE70398002180F83C10B0
:1023E000FFE700208DF81300FFE79DF8130005B00C
:1023F0007047000080B584B002900298002804D194
:10240000FFE701208DF80F0043E0029890F83D00AF
:10241000002808D1FFE70298002180F83C100298BC
:1024200000F03CF8FFE70298022180F83D10029886
:1024300050F8041B01900846019902F03BFA0298FB
:10244000012180F84610FFE70298012180F83E1034
:10245000029880F83F10029880F84010029880F8A7
:102460004110FFE7FFE70298012180F8421002982F
:1024700080F84310029880F84410029880F84510C4
:10248000FFE70298012180F83D1000208DF80F0031
:10249000FFE79DF80F0004B080BD000080B584B058
:1024A000039003980068B0F1804F1BD1FFE7FFE76E
:1024B0000020029043F64000C4F20200016841F09F
:1024C00001010160006800F0010002900298FFE73E
:1024D0001C20052100220190FFF76AF90198FFF7FF
:1024E0005BF9FFE704B080BD83B00190019890F8DC
:1024F0003D00012804D0FFE701208DF80B006AE0C1
:102500000198022180F83D1001980068C16841F0EF
:102510000101C160019800680021C4F201018842F4
:102520003CD0FFE701980068B0F1804F36D0FFE75C
:102530000198006840F20041C4F2000188422DD0A9
:10254000FFE70198006840F60001C4F200018842EC
:1025500024D0FFE70198006840F60041C4F2000172
:1025600088421BD0FFE70198006840F20041C4F2A6
:102570000101884212D0FFE70198006844F200018F
:10258000C4F20101884209D0FFE70198006841F6D2
:102590000001C4F20001884212D1FFE701980068EF
:1025A000806800F0070000900098062807D0FFE739
:1025B00001980068016841F001010160FFE706E051
:1025C00001980068016841F001010160FFE7002007
:1025D0008DF80B00FFE79DF80B0003B0704700007B
:1025E00080B58CB00A90099100208DF82300FFE798
:1025F0000A9890F83C00012804D1FFE702208DF8EA
:102600002F00BBE00A98012180F83C10FFE7FFE7AC
:102610000A98022180F83D100A98006880680790A7
:10262000079820F077000790079820F47F400790E4
:1026300007980A9909688860099800680028069038
:1026400000F08280FFE7069810287DD0FFE706980B
:10265000202879D0FFE70698302875D0FFE7069844
:10266000402861D0FFE7069850283DD0FFE7069844
:10267000602849D0FFE7069870280BD0FFE706983E
:10268000B0F5805F05D0FFE70698B0F5005F19D080
:1026900061E064E00A98006809994A688B68C96833
:1026A00005911946059B02F0D3F90A9800688068E5
:1026B0000790079840F07700079007980A990968F3
:1026C00088604CE00A98006809994A688B68C96874
:1026D00004911946049B02F0BBF90A9800688168CE
:1026E00041F4804181603AE00A98006809994A689B
:1026F000C96803911146039A02F0DAF90A98006852
:10270000502102F0BFF92AE00A98006809994A6846
:10271000C96802911146029A02F0F2F90A9800681B
:10272000602102F0AFF91AE00A98006809994A6836
:10273000C96801911146019A02F0BAF90A98006835
:10274000402102F09FF90AE00A9800680999096897
:1027500002F098F903E001208DF82300FFE70A98C2
:10276000012180F83D10FFE70A98002180F83C1015
:10277000FFE79DF823008DF82F00FFE79DF82F005D
:102780000CB080BD81B0009001B0704780B582B0C0
:10279000019001980068006900F002000021B1EB8F
:1027A000500F29D0FFE701980068C06800F00200D0
:1027B0000021B1EB500F1ED0FFE7019800686FF0C9
:1027C0000201016101980121017701980068806987
:1027D0008007002804D0FFE70198FFF7D3FF06E049
:1027E000019800F015F9019800F016F9FFE701983B
:1027F00000210177FFE7FFE701980068006900F01A
:1028000004000021B1EB900F29D0FFE70198006888
:10281000C06800F004000021B1EB900F1ED0FFE76C
:10282000019800686FF004010161019802210177AD
:1028300001980068806910F4407F04D0FFE7019898
:10284000FFF7A0FF06E0019800F0E2F8019800F021
:10285000E3F8FFE7019800210177FFE7FFE7019820
:102860000068006900F008000021B1EBD00F29D00A
:10287000FFE701980068C06800F008000021B1EB94
:10288000D00F1ED0FFE7019800686FF008010161CA
:1028900001980421017701980068C0698007002829
:1028A00004D0FFE70198FFF76DFF06E0019800F004
:1028B000AFF8019800F0B0F8FFE701980021017728
:1028C000FFE7FFE701980068006900F010000021B1
:1028D000B1EB101F29D0FFE701980068C06800F035
:1028E00010000021B1EB101F1ED0FFE70198006817
:1028F0006FF01001016101980821017701980068CB
:10290000C06910F4407F04D0FFE70198FFF73AFF59
:1029100006E0019800F07CF8019800F07DF8FFE7F0
:10292000019800210177FFE7FFE70198006800693F
:10293000C007002811D0FFE701980068C068C007F1
:10294000002809D0FFE7019800686FF001010161DC
:10295000019800F065F8FFE7FFE70198006800695B
:10296000C0B20021B1EBD01F13D0FFE7019800687F
:10297000C068C0B20021B1EBD01F09D0FFE70198B9
:1029800000686FF0800101610198FFF799FCFFE793
:10299000FFE701980068006900F040000021B1EBFA
:1029A000901F14D0FFE701980068C06800F0400055
:1029B0000021B1EB901F09D0FFE7019800686FF08C
:1029C00040010161019800F03DF8FFE7FFE7019841
:1029D0000068006900F020000021B1EB501F14D006
:1029E000FFE701980068C06800F020000021B1EB0B
:1029F000501F09D0FFE7019800686FF020010161C6
:102A00000198FFF761FCFFE7FFE702B080BD00001F
:102A100081B0009001B0704781B0009001B0704764
:102A200080B582B001900198006841F20041C4F283
:102A30000001884203D1FFE7FEF7D8FDFFE702B0AF
:102A400080BD000081B0009001B0704780B582B0B9
:102A500000900098002804D1FFE701208DF80700BE
:102A600040E000988069002801D0FFE700E0FFE720
:102A7000009890F83D00002808D1FFE70098002159
:102A800080F83C10009800F031F8FFE7009824210E
:102A900080F83D1000980068C16821F40051C160C1
:102AA000009802F057F800980068016921F49041FD
:102AB000016100980068416921F02A014161009894
:102AC0000068C16841F40051C160009800210164B0
:102AD0000098202280F83D20009880F83E208DF854
:102AE0000710FFE79DF8070002B080BD80B58EB0EB
:102AF0000D9000200C900B900A90099008900D9872
:102B0000006841F20001C4F20101884260D1FFE790
:102B1000FFE70020079043F64400C4F2020001687A
:102B200041F010010160006800F010000790079864
:102B3000FFE7FFE70020069043F63000C4F20200F2
:102B4000016841F001010160006800F00100069099
:102B50000698FFE74FF4C06008900220099000201B
:102B60000A9003210B9107210C910021C4F202016C
:102B700008AA019008461146FEF708FB40F65840A7
:102B8000C2F2000046F24041C4F2020101604FF07F
:102B90000061416001998160C1604FF4806202610F
:102BA00041618161C16101624162FEF733FA00282F
:102BB00003D0FFE7FEF70CF8FFE7FFE70D9840F6BC
:102BC0005841C2F2000181630D988863FFE7A7E0D6
:102BD0000D98006844F20041C4F2000188425FD1C0
:102BE000FFE7FFE70020059043F64000C4F2020033
:102BF000016841F400310160006800F40030059084
:102C00000598FFE7FFE70020049043F63000C4F288
:102C10000200016841F001010160006800F001005C
:102C200004900498FFE70C200890022009900020EF
:102C30000A9003210B9107210C910021C4F202019B
:102C400008AA009008461146FEF7A0FA40F6B840E0
:102C5000C2F2000046F28801C4F2020101604FF0A6
:102C60000061416000998160C1604FF4806202613F
:102C700041618161C16101624162FEF7CBF90028C7
:102C800003D0FFE7FDF7A4FFFFE7FFE70D9840F64D
:102C9000B841C2F2000181630D988863FFE73EE00E
:102CA0000D98006844F60001C4F20001884235D155
:102CB000FFE7FFE70020039043F64000C4F2020064
:102CC000016841F480210160006800F480200390D5
:102CD0000398FFE7FFE70020029043F63000C4F2BC
:102CE0000200016841F002010160006800F002008A
:102CF00002900298FFE74FF440600890022009908C
:102D000000200A9003200B9007200C9040F2004016
:102D1000C4F2020008A9FEF739FAFFE7FFE7FFE770
:102D20000EB080BD80B58AB0944608900791ADF88A
:102D30001A20059300200290089890F83D00202862
:102D400040F09780FFE70798002805D0FFE7BDF81F
:102D50001A00002804D1FFE701208DF827008CE03D
:102D6000FFE7089890F83C00012804D1FFE7022013
:102D70008DF8270081E00898012180F83C10FFE7DA
:102D8000FFE70898002101640898212180F83D1090
:102D9000FEF726FC0290BDF81A0008998884BDF859
:102DA0001A000899C88408988068B0F5805F0AD135
:102DB000FFE708980069002805D1FFE7002004908C
:102DC0000798039004E00798049000200390FFE721
:102DD000FFE70898002180F83C10FFE7FFE708981C
:102DE000C08C00282DD0FFE70898029B05996A4601
:102DF00011608021002201F059FF002804D0FFE774
:102E000003208DF8270038E0049800280BD1FFE755
:102E1000039800886FF35F20089909684860039859
:102E20000230039008E00498007808990968486027
:102E3000049801300490FFE70898C18C0139C184DF
:102E4000CDE70898029B05996A461160402100224F
:102E500001F02CFF002804D0FFE703208DF82700A5
:102E60000BE00898202180F83D1000208DF8270005
:102E700003E002208DF82700FFE79DF827000AB045
:102E800080BD000082B00A460190ADF80210FFE755
:102E9000BDF80200411EADF80210002816D0FFE771
:102EA000FFE744F60000C4F2000000684006002876
:102EB00001D4FFE7F5E70198007844F60401C4F275
:102EC00000010860019801300190E1E702B070470D
:102ED00080B582B0019000910198BDF80010FFF715
:102EE000D1FF02B080BD000080B582B0019000919A
:102EF0000199BDF8002040F63460C2F20000FF23C3
:102F0000FFF710FF02B080BDFFE7FEE780B584B099
:102F10000020C4F202004FF480710022039002915D
:102F20000192FEF743FB40F60000C4F20200016884
:102F300021F040710160016841F0807101604FF43F
:102F40008051019AFEF732FB0220009001F0EEFF63
:102F5000012203980299FEF729FB009801F0E6FF91
:102F600003980299019AFEF721FB04B080BD00008E
:102F700080B582B00020C4F202004FF480710122BB
:102F80000192FEF713FB40F60000C4F202004FF47A
:102F90008051019AFEF70AFB02B080BD80B586B071
:102FA0000020C4F202004FF48071002205900491C9
:102FB0000392FEF7FBFA40F60000C4F2020001683B
:102FC00021F040710160016841F0807101604FF4AF
:102FD000805101220292FEF7E9FA0220019001F0ED
:102FE000A5FF05980499029AFEF7E0FA019801F00E
:102FF0009DFF05980499039AFEF7D8FA06B080BDA4
:1030000080B584B001468DF80F0000208DF80D00CA
:1030100040F60002C4F20202136823F0407313600A
:10302000136813608DF80E00FFE79DF80E00072867
:1030300032DCFFE70020C4F202004FF4807100226E
:1030400002900191FEF7B2FA022001F06FFF012217
:1030500002980199FEF7AAFA9DF80D0040008DF83C
:103060000D0040F60000C4F202004FF48051FEF75C
:103070006FFA002806D0FFE79DF80D0001308DF8AB
:103080000D00FFE7012001F051FFFFE79DF80E0062
:1030900001308DF80E00C8E79DF80F00002803D11D
:1030A000FFE7FFF77BFF02E0FFF730FFFFE79DF848
:1030B0000D0004B080BD000080B586B001468DF8DB
:1030C000170040F60000C4F20200026822F04072CD
:1030D0000260026842F0807202600020C4F20200C6
:1030E0004FF480720023049111461A460393FEF7B1
:1030F0005DFA03988DF81600FFE79DF81600072883
:1031000030DCFFE79DF81700C20940F60000C4F26A
:1031100002004FF48051FEF749FA9DF81700400075
:103120008DF817000220029001F000FF0020C4F289
:1031300002004FF48071012201900091FEF736FAEF
:10314000029801F0F3FE002201980099FEF72EFA92
:10315000029801F0EBFEFFE79DF8160001308DF8B4
:103160001600CAE706B080BD80B588B040F6000002
:10317000C4F20200016821F040710160016841F071
:10318000807101604FF480510122079006910592F1
:10319000FEF70CFA0020C4F202004FF48071049094
:1031A0000391059AFEF702FA0420029001F0BEFE98
:1031B00000200799019008460699019AFEF7F6F952
:1031C000029801F0B3FE04980399019AFEF7EEF914
:1031D00008B080BD80B588B040F60000C4F202009F
:1031E000016821F040710160016841F08071016067
:1031F0000021C4F202014FF48072002307900846B8
:103200000691114605921A460493FEF7CFF94FF442
:1032100080500799039008460399049AFEF7C6F96F
:103220000420029001F082FE0120069901900846D8
:103230000599019AFEF7BAF907980399019AFEF7E2
:10324000B5F9029801F072FE08B080BD80B584B077
:1032500000208DF80E0040F60000C4F20200016864
:1032600021F040710160016801604FF4805101223A
:103270000292FEF79BF9029801F058FE0020C4F27A
:1032800002004FF48071029AFEF790F9029801F063
:103290004DFEFFE740F60000C4F202004FF48051FB
:1032A000FEF756F9002811D0FFE79DF80E00013017
:1032B0008DF80E009DF80E00FB2806DBFFE7FFF7F8
:1032C00089FF01208DF80F000DE0E3E70020C4F234
:1032D00002004FF4807100220192FEF767F9019815
:1032E0008DF80F00FFE79DF80F0004B080BD0000CF
:1032F00040F67860C2F200007047000080B582B0EE
:1033000000F08CFB8DF806009DF80600002805D023
:10331000FFE79DF806008DF807000AE0642003F03F
:1033200061FC009000F0AEF99DF806008DF80700F2
:10333000FFE79DF8070002B080BD000081B00146A4
:103340008DF803009DF8030040F67862C2F2000297
:1033500082F83C0001B0704781B001468DF803004F
:103360009DF8030040F67862C2F2000282F83D0048
:1033700001B0704781B001468DF803009DF803004D
:1033800040F67862C2F2000282F83E0001B0704757
:1033900010B59AB014A8FDF763FC9DED140A9DEDDD
:1033A000151A9DED162ADDED171A9FEDA13A20EEB4
:1033B000030A9FEDA04A80EE040A21EE031AC1EE33
:1033C000040A22EE031A81EE041A9DED182ADDED9F
:1033D000192A8DED133A8DED124A00F0D1FE40F21C
:1033E000F440C2F20000016840F20C52C2F2000246
:1033F000116041F23841C2F200010B68536041F2A2
:103400003C43C2F20003D3F800C0C2F808C041F246
:10341000404CC2F2000CDCF800E0C2F80CE0DDF831
:103420005CE040F67864C2F20004C4F818E0DDF80D
:1034300060E0C4F81CE0DDF864E0C4F820E0DDF8EA
:1034400050E0C4F80CE0DDF854E0C4F810E0DDF81A
:1034500058E0C4F814E092ED000A92ED011A92EDE2
:10346000022A92ED033A20EE010A22EE033A30EEF0
:10347000030A30EE000A10EE10EA11907046109226
:103480000F910E93CDF834C00C948DED0B1A8DED89
:103490000A2AFDF7DEF841EC100B9DED0B1A21EE28
:1034A000012A9DED0A3A23EE034A32EE042A32EE57
:1034B000022AB7EE004A34EE422A12EE100A8DEDCF
:1034C000080B8DED074AFDF7C4F841EC110B9DED9B
:1034D000080B05F0B9FB51EC100B9FED4F0B53ECB3
:1034E000102B06920593FCF767FF41EC100B51EC93
:1034F000100B9FED4B0B53EC102B04920393FCF736
:10350000CDFF41EC100B51EC100BFDF7B5F80C9909
:103510004860109890ED000A90ED011A90ED022A93
:1035200090ED033A20EE020A21EE031A30EE410A32
:1035300030EE000A04F0DCF89DED121A20EE410A8C
:103540009DED132A80EE020A0C9880ED000A0F9977
:1035500091ED000A30EE000A0E9A92ED003A20EE4C
:10356000030A119B93ED003A33EE033ADDF834C0C1
:103570009CED004A23EE043A30EE030A10EE100AE6
:10358000FDF767F841EC100B0E9890ED001AB8EEBD
:10359000002A21EE021A90ED002A21EE021A0D995E
:1035A00091ED002A32EE022A91ED003A22EE032A32
:1035B00031EE421A9DED072A31EE021A11EE100A81
:1035C0008DED000BFDF745F841EC110B9DED000B67
:1035D00005F03AFB53EC102B9FED130B51EC100B45
:1035E000FCF7E4FE41EC100B51EC100B069A059B26
:1035F000FCF7E2FE41EC100B51EC100B049A039B1C
:10360000FCF74CFF41EC100B51EC100BFDF734F8BC
:103610000C9988601AB010BD000000000080664060
:1036200000000060FB210940000000000000008055
:10363000DB0F49400000344383B00290002000902B
:103640000190FFE7019809280CDCFFE70298019937
:1036500030F91100009908440090FFE7019801300B
:103660000190EFE7009846F26761C6F2666150FB91
:1036700001F0811001EBD0700090BDF9000003B0A3
:103680007047000080B58CB0002007900690059030
:1036900004900390029040F67861C2F20001086342
:1036A000486388630B90FFE70B9880087C282ED82E
:1036B000FFE7012003F096FA0DF1260108AA019018
:1036C0000846114600F064F8BDF926000799084441
:1036D0000790BDF92800069908440690BDF92A0014
:1036E000059908440590BDF9200004990844049008
:1036F000BDF92200039908440390BDF92400029902
:1037000008440290FFE70B9801300B90CCE7069835
:1037100044F6D351C1F2620150FB01F0421102EBB9
:10372000D07000EE100AB8EEC00A40F67860C2F21F
:10373000000080ED0C0A079A52FB01F2531103EBD3
:10374000D27200EE102AB8EEC00A80ED0D0A059A7A
:1037500052FB01F14A1102EBD17100EE101AB8EEE2
:10376000C00A80ED0E0A0CB080BD000082B00A468F
:103770000190ADF80210BDF80200019940F2AC537F
:10378000C2F200031B7821F8130002B0704700005A
:1037900080B590B00F900E9140F29A50C2F20000A6
:1037A000811C021D0D9000F009F90D998A1D083148
:1037B0000D9B03F10A0C0C901046624600F0CEF807
:1037C0000D99B1F9001040F21C52C2F200020B90A8
:1037D00010460A92FFF7CAFF0D98B0F902100A9A34
:1037E00002F1140318460993FFF7C0FF0D98B0F9D2
:1037F00004100A9A02F1280318460893FFF7B6FF4F
:103800000D98B0F906100A9A02F13C031846079386
:10381000FFF7ACFF0D98B0F908100A9A02F15003B7
:1038200018460693FFF7A2FF0D98B0F90A100A9AFE
:1038300002F1640318460593FFF798FF40F2AC507D
:10384000C2F20000017801314CF6CD42CCF6CC42F8
:10385000A1FB0223DB0803EB8303A1EB430101700F
:103860000A980492FFF7E8FE40F2A651C2F2000166
:10387000088009980391FFF7DFFE40F2A851C2F2D9
:103880000001088008980291FFF7D6FE40F2AA5185
:10389000C2F2000108800398B0F9002000EE102A5F
:1038A000B8EEC00A40F67862C2F2000292ED0D1A3C
:1038B00030EE410ABDEEC00A10EE103ADDF83CC011
:1038C000ACF80030029BB3F900C000EE10CAB8EEAD
:1038D000C00A92ED0C1A30EE410ABDEEC00A10EE9D
:1038E00010CADDF83CE0AEF802C0B1F9001000EEFD
:1038F000101AB8EEC00A92ED0E1A30EE410ABDEE73
:10390000C00A10EE101A0F9A91800798FFF794FEE4
:1039100040F29451C2F20001088006980191FFF72D
:103920008BFE40F29651C2F200010880059800918A
:10393000FFF782FE40F29851C2F200010880019820
:1039400002880E9B1A80009A1388DDF838C0ACF804
:10395000023009880E9B998010B080BD80B586B07A
:1039600005900491039268203B2106220DF1060385
:1039700000F0E6F88DF805009DF80500002819D143
:10398000FFE79DF806009DF8071041EA0020059921
:1039900008809DF808009DF8091041EA002004996C
:1039A00008809DF80A009DF80B1041EA0020039959
:1039B0000880FFE79DF8050006B080BD80B586B0A1
:1039C0000590049103926820432106220DF106031D
:1039D00000F0B6F88DF805009DF80500002819D113
:1039E000FFE79DF806009DF8071041EA00200599C1
:1039F00008809DF808009DF8091041EA002004990C
:103A000008809DF80A009DF80B1041EA00200399F8
:103A10000880FFE79DF8050006B080BD80B590B036
:103A2000FFF7A6FA6B2080210E900D9100F084F92B
:103A300064210C90084603F0D5F800210E9A0B90F3
:103A400010460A9100F078F903210990084600F029
:103A5000EBF80A990890084600F0D2F84FF47A7112
:103A60000790084600F038F93821069008460A9970
:103A700000F062F96A21059008460A9900F05CF9A5
:103A80002321049008460A9900F056F93721039043
:103A900008460D9900F050F975210290084600F093
:103AA00025F88DF83E009DF83E00682812D1FFE70A
:103AB0006B20012100F040F96C21002201900846A2
:103AC000114600F039F94FF47A710090084600F081
:103AD00003F903E001208DF83F0003E000208DF89A
:103AE0003F00FFE79DF83F0010B080BD80B586B075
:103AF00001468DF817000491FFF736FBD020FFF741
:103B0000DBFAFFF7A3FB9DF8171003900846FFF7B9
:103B1000D3FAFFF79BFB0290FFF726FBD120FFF7BC
:103B2000CBFAFFF793FB002101900846FFF768FAF4
:103B30008DF81600FFF74EFB9DF8160006B080BD0D
:103B400010B586B094468E4604468DF816008DF862
:103B500015108DF814200493CDF80CC0CDF808E0B2
:103B60000194FFF701FB9DF816004000C0B2FFF77B
:103B7000A3FAFFF76BFB002806D0FFE7FFF72AFB4D
:103B800001208DF8170037E09DF81500FFF794FA33
:103B9000FFF75CFB0090FFF7E7FA9DF81600400086
:103BA0000130C0B2FFF788FAFFF750FBFFE79DF83E
:103BB000140000281AD0FFE79DF81400012806D150
:103BC000FFE70020FFF71CFA0499087005E00120C8
:103BD000FFF716FA04990870FFE79DF81400013802
:103BE0008DF81400049801300490E0E7FFF7F2FA32
:103BF00000208DF81700FFE79DF8170006B010BDF4
:103C000080B584B001468DF80F009DF80F00C0000C
:103C1000C0B21C2202901046029A0191114600F097
:103C20008BF804B080BD000080B584B001468DF8EB
:103C30000F009DF80F00C000C0B21B22029010467A
:103C4000029A0191114600F077F804B080BD00009F
:103C500080B582B00146ADF8060000208DF8050061
:103C6000BDF80600BC2804DBFFE701208DF8050045
:103C70002BE0BDF80600622804DBFFE702208DF888
:103C8000050021E0BDF806002A2804DBFFE7032039
:103C90008DF8050017E0BDF80600142804DBFFE7E7
:103CA00004208DF805000DE0BDF806000A2804DBAD
:103CB000FFE705208DF8050003E006208DF80500DC
:103CC000FFE7FFE7FFE7FFE7FFE79DF805101A2092
:103CD00000F032F802B080BD80B582B00146ADF888
:103CE0000600BDF80600B0F57A7F05DDFFE74FF46A
:103CF0007A70ADF80600FFE7BDF80600032804DC83
:103D0000FFE70420ADF80600FFE7BDF806004FF41A
:103D10007A71B1FBF0F001388DF805009DF80510BF
:103D2000192000F009F8BDF806104908009008466F
:103D3000FFF78EFF02B080BD80B584B00A4603460F
:103D40008DF80E008DF80D1002920193FFF70CFA1A
:103D5000D020FFF7B1F9FFF779FA002806D0FFE786
:103D6000FFF738FA01208DF80F001CE09DF80E00D7
:103D7000FFF7A2F9FFF76AFA9DF80D1000900846C8
:103D8000FFF79AF9FFF762FA002806D0FFE7FFF77E
:103D900021FA01208DF80F0005E0FFF71BFA002043
:103DA0008DF80F00FFE79DF80F0004B080BD000004
:103DB00080B586B0FFE70020059043F63000C4F2DE
:103DC0000200016841F400110160006800F4001075
:103DD00005900598FFE7FFE70020049043F63000C8
:103DE000C4F20200016841F480010160006800F43F
:103DF000800004900498FFE7102005210022039022
:103E000002910192FDF7D4FC0398FDF7C5FC3A201E
:103E100000900299019AFDF7CBFC0098FDF7BCFCDD
:103E200006B080BD10B59EB049F61020C0F6000067
:103E3000016842688368D0F80CC0D0F810E044698B
:103E40001C94CDF86CE0CDF868C0199318921791C6
:103E500080691D9017A80021019102F0DFFE40F655
:103E60003841C2F20001086049F64820C0F600005F
:103E7000016842688368D0F80CC0D0F810E044694B
:103E80001594CDF850E0CDF84CC0129311921091DA
:103E90008069169010A8019902F0C0FE41F290319D
:103EA000C2F20001086049F62C20C0F6000001684B
:103EB00042688368D0F80CC0D0F810E044690E94D2
:103EC000CDF834E0CDF830C00B930A9209918069A7
:103ED0000F9009A8019902F0A1FE41F28C31C2F2C3
:103EE0000001086049F66420C0F6000001684268DD
:103EF0008368D0F80CC0D0F810E044690794CDF87E
:103F000018E0CDF814C004930392029180690890E0
:103F100002A8019902F082FE41F24841C2F200017A
:103F200008601EB010BD000080B592B00020119056
:103F300010900F900E900D90FFE700200C9043F62C
:103F40003000C4F20200016841F0800101600068A5
:103F500000F080000C900C98FFE7FFE700200B902A
:103F600043F63000C4F20200016841F00401016030
:103F7000006800F004000B900B98FFE7FFE70020BB
:103F80000A9043F63000C4F20200016841F00101DA
:103F90000160006800F001000A900A98FFE7FFE75F
:103FA0000020099043F63000C4F20200016841F09D
:103FB00002010160006800F0020009900998FFE723
:103FC0000020C4F202004FF4807100220890079193
:103FD0000692FDF7EBFA40F60000C4F202004FF43F
:103FE000805105900491069AFDF7E0FA02200D90A9
:103FF00006990E9101220F920DAA059B0390184677
:1040000011460292FDF7C2F807980D9011210E910A
:10401000069A0F92039B10930898DDF808C001914F
:104020006146FDF7B3F804980D9001990E91069A38
:104030000F92039B109305980299FDF7A7F812B011
:1040400080BD000080B586B00020059004900390EC
:1040500002900190009040F61C51C2F200014FF016
:1040600080420A6051224A60886040F2E732CA60AA
:10407000086188610846FEF7BDF9002803D0FFE714
:10408000FCF7A6FDFFE74FF48050029040F61C506D
:10409000C2F2000002A9FEF7A3FA002803D0FFE74E
:1040A000FCF796FDFFE700200090019040F61C50C1
:1040B000C2F200006946FEF70BF9002803D0FFE7C3
:1040C000FCF786FDFFE706B080BD000080B540F636
:1040D000AC50C2F2000041F20001C4F201010160E3
:1040E0004FF4E131416000218160C16001610C2227
:1040F00042618161C161FEF7A9FC002803D0FFE79E
:10410000FCF766FDFFE780BD80B540F6F050C2F2D7
:10411000000044F20041C4F2000101604FF4E131BB
:10412000416000218160C16001610C2242618161B6
:10413000C161FEF78BFC002803D0FFE7FCF748FDC8
:10414000FFE780BD80B540F63460C2F2000044F65F
:104150000001C4F2000101604FF4165141600021DA
:104160008160C16001610C2242618161C161FEF721
:104170006DFC002803D0FFE7FCF72AFDFFE780BDB8
:1041800080B594B08DED130ACDED120A8DED111AA4
:10419000CDED101A8DED0F2ACDED0E2A9DED100AF2
:1041A000B5EE400AF1EE10FA11D1FFE79DED0F0ACE
:1041B000B5EE400AF1EE10FA09D1FFE79DED0E0AC7
:1041C000B5EE400AF1EE10FA00F03C81FFE79DEDFC
:1041D000100A20EE000A9DED0F1A21EE011A30EEB2
:1041E000010A9DED0E1A21EE011A30EE010A00F0CF
:1041F000B1FF8DED0D0A9DED0D0A9DED101A21EE1A
:10420000000A8DED100A9DED0D0A9DED0F1A21EEAD
:10421000000A8DED0F0A9DED0D0A9DED0E1A21EE9F
:10422000000A8DED0E0A41F23840C2F2000090ED16
:10423000000A41F24041C2F2000191ED001A20EE65
:10424000010A40F2F442C2F2000292ED001A41F279
:104250003C43C2F2000393ED002A21EE021A30EE35
:10426000410A8DED0C0A92ED000A90ED001A20EE45
:10427000010A93ED001A91ED002A21EE021A30EEA8
:10428000010A8DED0B0A92ED000A92ED001A20EE64
:10429000010ABEEE001A30EE010A91ED001A91ED0E
:1042A000002A21EE021A30EE010A8DED0A0A9DED78
:1042B0000F0A9DED0A1A20EE010A9DED0E1A9DEDE2
:1042C0000B2A21EE021A30EE410A8DED090A9DED0E
:1042D0000E0A9DED0C1A20EE010A9DED101A9DEDBF
:1042E0000A2A21EE021A30EE410A8DED080A9DEDF0
:1042F000100A9DED0B1A20EE010A9DED0F1A9DED9F
:104300000C2A21EE021A30EE410A8DED070A41F225
:104310007C70C2F2000090ED000AB5EE400AF1EEAA
:1043200010FA55DDFFE741F27C70C2F2000090ED1B
:10433000000A9DED091A20EE010A9FEDB51A20EE44
:10434000010A41F27031C2F2000191ED002A32EE11
:10435000000A81ED000A90ED000A9DED082A20EE8A
:10436000020A20EE010A41F27432C2F2000292ED1A
:10437000002A32EE000A82ED000A90ED000A9DED5F
:10438000072A20EE020A20EE010A41F27830C2F23A
:10439000000090ED001A31EE000A80ED000A91ED68
:1043A000000A9DED131A31EE000A8DED130A92ED0D
:1043B000000A9DED121A31EE000A8DED120A90ED01
:1043C000000A9DED111A31EE000A8DED110A10E080
:1043D00041F27030C2F200000021016041F27430FD
:1043E000C2F20000016041F27830C2F200000160C8
:1043F000FFE740F2F840C2F2000090ED000A9DEDA8
:10440000091A20EE010A9DED131A31EE000A8DED16
:10441000130A90ED000A9DED081A20EE010A9DEDA9
:10442000121A31EE000A8DED120A90ED000A9DED90
:10443000071A20EE010A9DED111A31EE000A8DEDEA
:10444000110AFFE79DED130A9FED721A20EE010A93
:104450008DED130A9DED120A20EE010A8DED120A70
:104460009DED110A20EE010A8DED110A40F2F44093
:10447000C2F200000168069141F23841C2F2000127
:104480000A68059241F23C42C2F2000213680493AA
:104490009DED050A9DED131A20EE410A9DED041ACB
:1044A0009DED122A21EE021A30EE410A41F24043FC
:1044B000C2F2000393ED001A9DED112A21EE021ABB
:1044C00030EE410A90ED001A31EE000A80ED000A4C
:1044D0009DED060A9DED131A20EE010A9DED041ACA
:1044E0009DED112A21EE021A30EE010A93ED001A19
:1044F0009DED122A21EE021A30EE410A91ED001ACA
:1045000031EE000A81ED000A9DED060A9DED121ABA
:1045100020EE010A9DED051A9DED112A21EE021AE9
:1045200030EE410A93ED001A9DED132A21EE021A96
:1045300030EE010A92ED001A31EE000A82ED000A17
:104540009DED060A9DED111A20EE010A9DED051A5A
:104550009DED122A21EE021A30EE010A9DED041A99
:104560009DED132A21EE021A30EE410A93ED001A56
:1045700031EE000A83ED000A90ED000A90ED001A7A
:1045800020EE010A91ED001A91ED002A21EE021AA7
:1045900030EE010A92ED001A92ED002A21EE021A85
:1045A00030EE010A93ED001A93ED002A21EE021A73
:1045B00030EE010A039002910192009300F0CAFDCF
:1045C0008DED0D0A9DED0D0A039890ED001A21EE78
:1045D000000A80ED000A9DED0D0A029991ED001A86
:1045E00021EE000A81ED000A9DED0D0A019A92ED7F
:1045F000001A21EE000A82ED000A9DED0D0A009BD3
:1046000093ED001A21EE000A83ED000A14B080BD7C
:104610006F12833A6F12033AFFE7FEE7FFE7FEE708
:1046200088B0079006910592079800F00700049063
:104630000498C0F10700052803D3FFE70420019088
:1046400004E00498C0F107000190FFE7019803908F
:1046500004980430062803D8FFE70020009003E008
:10466000049803380090FFE7009802900698039999
:10467000012202FA01F10139084002998840059BA4
:1046800002FA01F101391940084308B070470000EF
:10469000EFF30980BFF36F8F154B1A681EF0100FF0
:1046A00008BF20ED108A20E9F04F10602DE90900C5
:1046B0004FF0500080F31188BFF34F8FBFF36F8F1F
:1046C00003F0FEFB4FF0000080F31188BDE8090005
:1046D00019680868B0E8F04F1EF0100F08BFB0EC82
:1046E000108A80F30988BFF36F8F704700BF00BF47
:1046F0009C130020000000000000000000000000EB
:10470000074B19680868B0E8F04F80F30988BFF3D9
:104710006F8F4FF0000080F31188704700BF00BF1B
:104720009C13002080B582B00190FFE7012002F0C9
:1047300059FA0090FAE7000080B582B04FF05000BF
:1047400080F31188BFF36F8FBFF34F8F009003F09A
:104750008BFD002808D0FFE74EF60450CEF2000093
:104760004FF080510160FFE700200190019880F335
:10477000118802B080BD000080B594B008A8302137
:10478000FBF768FD002007900690059004900390C9
:10479000FFE70020029043F64000C4F202000168E7
:1047A00041F080510160006800F080500290029852
:1047B000FFE7FFE70020019047F20000C4F200008D
:1047C000016841F480410160006800F4804001907C
:1047D0000198FFE7012008904FF4803009900220F3
:1047E0000E904FF480010F9104211091A822119294
:1047F0001290139108A8FDF7FDF9002803D0FFE7F8
:10480000FCF7E6F9FFE70F20039002200490002058
:1048100005904FF4A05006904FF48050079003A8E5
:104820000521FCF7EDFF002803D0FFE7FCF7D0F9E6
:10483000FFE714B080BD00004EF68850CEF20000B5
:10484000016841F4700101607047000080B541F2D9
:104850007C30C2F20000016801310160006847F657
:10486000D501C2F2E96148434FEAB00041F26E213E
:10487000C0F28301884209D8FFE741F20040C4F248
:1048800002004FF40071FCF77BFEFFE7FEF780FDAE
:104890000120FEF753FD40F61C50C2F20000FDF768
:1048A00075FF80BD80B540F66450C2F20000FDF790
:1048B0006DFF80BD83B00290019102980068009066
:1048C00002980021C4F20101884225D0FFE7029836
:1048D000B0F1804F20D0FFE7029840F20041C4F2CF
:1048E0000001884218D0FFE7029840F60001C4F2A8
:1048F0000001884210D0FFE7029840F60041C4F260
:104900000001884208D0FFE7029840F20041C4F25B
:10491000010188420AD1FFE7009820F07000009062
:1049200001984068009908430090FFE70298002131
:10493000C4F20101884255D0FFE70298B0F1804FE0
:1049400050D0FFE7029840F20041C4F200018842D3
:1049500048D0FFE7029840F60001C4F20001884207
:1049600040D0FFE7029840F60041C4F200018842BF
:1049700038D0FFE7029840F20041C4F201018842BA
:1049800030D0FFE7029844F20001C4F201018842EE
:1049900028D0FFE7029844F20041C4F201018842A6
:1049A00020D0FFE7029844F60001C4F201018842DA
:1049B00018D0FFE7029841F60001C4F200018842D6
:1049C00010D0FFE7029841F60041C4F2000188428E
:1049D00008D0FFE7029842F20001C4F200018842C9
:1049E0000AD1FFE7009820F4407000900198C06859
:1049F000009908430090FFE7009820F0800001999B
:104A000049690843009000980299086001988068FD
:104A10000299C86201980068029988620298002190
:104A2000C4F20101884208D0FFE7029840F2004139
:104A3000C4F20101884205D1FFE70198006902999B
:104A40000863FFE702980121416103B0704700004D
:104A500085B00490039102920193049880680090BD
:104A6000009820F47F40009003980299019A41EA4F
:104A70000221084300990843009000980499886037
:104A800005B0704783B00290019102988068009051
:104A9000009820F07000009001980099084340F0C1
:104AA0000700009000980299886003B070470000EA
:104AB00085B00490039102920498006A00900498D3
:104AC000016A21F001010162049880690190019856
:104AD00020F0F00001900298019941EA0010019045
:104AE000009820F00A000090039800990843009075
:104AF00001980499886100980499086205B070478C
:104B000085B00490039102920498016A21F010018B
:104B100001620498806901900498006A00900198ED
:104B200020F4704001900298019941EA0030019010
:104B3000009820F0A00000900398009941EA00102E
:104B4000009001980499886100980499086205B062
:104B50007047000080B588B007900798006800692A
:104B600020F4405007990A68C96808431061079803
:104B7000816802694369C06911431943084306907B
:104B800007980068C06849F20C6188430699084399
:104B900007990968C86007980068406920F4407068
:104BA00007990A688969084350610798006841F2CB
:104BB0000001C4F20101884209D0FFE707980068AC
:104BC00041F20041C4F20101884204D1FFE7FCF741
:104BD0008BFF059003E0FCF775FF0590FFE7079852
:104BE000C069B0F5004F2FD1FFE705981921A0FB50
:104BF0000101079A136852684FEA420CD20F0492DF
:104C00006246DDF810C003936346FBF7D9FA48F219
:104C10001F51C5F2EB11A0FB01235B094FEA031CF6
:104C20004FF0640E03FB1E00322303EBC000A0FB19
:104C30000101F82303EA51130CEB4303C1F34211C2
:104C40001944039B99602EE005981921A0FB0101EE
:104C5000079A136852684FEA820C920F02926246DA
:104C6000DDF808C001936346FBF7AAFA48F21F512A
:104C7000C5F2EB11A0FB01235B094FF0640C03FBB1
:104C80001C004FF0320C0CEB0010A0FB01014FF0A8
:104C9000F00C0CEA511C0CEB0313C1F34311194443
:104CA000019B9960FFE708B080BD000080B588B027
:104CB000DDF828C09646069005918DF813200393E1
:104CC000FFE706980068006805990840401AB0FAA6
:104CD00080F040099DF8131088424AD1FFE70A98F6
:104CE0000130002844D0FFE70A98002808D0FFE7E9
:104CF000FCF776FC0399401A0A99884237D9FFE7F6
:104D0000FFE7FFE70698006850E8030F20F4D07033
:104D10000290FFE702980699096841E80302002A19
:104D2000F0D1FFE7FFE7FFE7FFE70698006850E8EC
:104D3000050F20F001000190FFE70198069909682E
:104D400041E80502002AF0D1FFE7FFE7069820219D
:104D500080F83D10069880F83E10FFE70698002185
:104D600080F83C10FFE703208DF81F0005E0FFE707
:104D7000A7E700208DF81F00FFE79DF81F0008B08F
:104D800080BD0000FFE7FEE784B041EC100B8DED25
:104D9000020B0298039941F00102002808BF0A465D
:104DA0000192019820F0004040F20001C7F6F07136
:104DB000A1EB00004FEAD07004B0704781B000EE64
:104DC000100A0090009820F00040C0F1FF40C00F92
:104DD00001B0704781B001468DF803009DF90300D2
:104DE00000280FD4FFE79DF9030000F01F01012206
:104DF00002FA01F140094EF20012CEF2000242F82E
:104E00002010FFE701B070474EF60C50CEF20000C4
:104E10000068C0F30220704782B002468DF8070098
:104E200000919DF9070000280AD4FFE700980001CF
:104E30009DF907104EF20042CEF2000288540BE0BA
:104E4000009800019DF8071001F00F014EF6145272
:104E5000CEF200028854FFE702B0704783B00290A0
:104E6000029800F0070000904EF60C50CEF20000C1
:104E70000168019101994FF6FF02114001910199DA
:104E8000009A41EA02210022C0F2FA521143019134
:104E90000199016003B0704784B003908DED020A60
:104EA000002001900090FFE70098039949680139BC
:104EB00088421AD2FFE703980068009900EB81024C
:104EC000526840F821209DED010A0398006800997E
:104ED00000EB810090ED001A30EE010A8DED010A21
:104EE000FFE7009801300090DEE7029803990A6816
:104EF000496802EB810141F8040C9DED010A039819
:104F00000168406801EB800010ED011A30EE010AE3
:104F10008DED010A9DED010A039890ED011AB8EE9E
:104F2000411A80EE010A04B07047000082B001907F
:104F300001980090FFE700BFFFE70098411E009135
:104F40000028F8D1FFE702B07047000010B585B027
:104F50009C4696460C460493039202918DED010AFD
:104F60009DED010AB5EE400AF1EE10FA009003DD66
:104F7000FFE70120049011E09DED010AB5EE400A23
:104F8000F1EE10FA09DCFFE79DED010AB1EE400AEF
:104F90008DED010A00200490FFE7FFE79DED010A77
:104FA000BDEEC00A8DED020A9DED010A9DED021ACB
:104FB000B8EEC11A30EE410A9FED081A20EE010A40
:104FC000BDEEC00A8DED030A02980399049A009B76
:104FD0009A605960186005B010BD00BF0000C8425B
:104FE00080B584B00390029140F6F050C2F2000008
:104FF00003A901224FF47A73FDF794FE03990190FF
:10500000084604B080BD000080B582B001468DF82E
:10501000070000208DF806008DF80500FFE79DF8D9
:105020000500032800F38780FFE79DF8050040F2A4
:105030000C01C2F20001085C9DF80710884273D190
:10504000FFE79DF8050000280FD1FFE740F20C00B4
:10505000C2F20000012102F0E1FA40F65440C2F22F
:1050600000000178013901703EE09DF8050001283B
:105070000FD1FFE740F20C00C2F20000002102F065
:10508000CDFA40F65440C2F20000017801310170BF
:1050900029E09DF8050002280FD1FFE740F20C003F
:1050A000C2F20000032102F0B9FA40F65540C2F204
:1050B000000001780131017014E09DF8050003281B
:1050C0000FD1FFE740F20C00C2F20000022102F013
:1050D000A5FA40F65540C2F200000178013901708E
:1050E000FFE7FFE7FFE7FFE740F65440C2F20000AA
:1050F000007840F2C441C2F2000101EB800040F6AA
:105100005541C2F200010978415C04200090FBF790
:1051100045FD41F28030C2F200000099FDF7E4FE47
:1051200001208DF8060006E0FFE79DF8050001303C
:105130008DF8050073E79DF80600002807D1FFE70A
:1051400040F20850C2F2000001210170FFE702B0F6
:1051500080BD000084B08DED030A9DED030AB6EE1C
:10516000001A20EE010A8DED020A039801900198C1
:105170000090009845F6DF11C5F63771A1EB60008D
:105180000090009801909DED010A9DED021A21EE1C
:10519000001A21EE001AB7EE082A32EE411A20EE6C
:1051A000010A8DED010A9DED010A04B0704700006F
:1051B00080B582B000200190FCF726FA0090FFF73E
:1051C000DBFAFEF7B1FEFEF7F3FDFEF73BFFFEF75D
:1051D0007DFFFEF799FFFEF7B5FFFEF723FE01F016
:1051E00017FDFFE7FEE7000082B00146ADF80600BC
:1051F00000200090BDF90600842807D0FFE7BDF924
:1052000006000099084403300090FFE7009802B0C0
:10521000704700000000000080B5B2B0319000205F
:1052200030908DF8BF008DF8BE002E908DF8B7003D
:105230002C908DF8AF008DF8AE008DF8AD008DF894
:10524000AC002A902990289027908DF89B002590FB
:10525000249023902290219020901F901E901D90CA
:105260001C901B90FFE700201A9043F63000C4F218
:105270000200016841F010010160006800F01000B8
:105280001A901A98FFE708201B9000201C9001211B
:105290001D9141F20001C4F202011BAA18900846B8
:1052A0001146FBF773FF18981899FBF777FC41F24A
:1052B0008030C2F200000421FDF716FE18988DF828
:1052C0006700FFE79DF8670001281DDCFFE79DF8F8
:1052D000670041F25C41C2F200014FF4C87210FB5A
:1052E000021141F24C42C2F2000242F830109DF825
:1052F000670002EBC00064214160FFE79DF8670092
:1053000001308DF86700DDE7FDF7F2FF41F26C3107
:10531000C2F20001086040F23460C2F200000021D5
:1053200001730846FEF726F840F6B83001F05AFC43
:10533000FFE740F23460C2F20000007B002869D130
:10534000FFE741F26C30C2F20000006890F83E00C6
:1053500000280CD0FFE79DF8BF00002807D1FFE729
:105360000020FEF707F801208DF8BF00FFE79DF849
:10537000BF0000284DD0FFE730980130309041F257
:105380006C30C2F20000006890F83E00002807D0A0
:10539000FFE700201790FDF7EDFF17983090FFE72B
:1053A0003098B0F57A7F33D3FFE7062010211690AE
:1053B000FBF7F4FB41F28030C2F2000004211590AB
:1053C0001491FDF791FD0020012113901291FBF73C
:1053D000E5FB15981499FDF787FD40F6B83001F00C
:1053E00001FC1699119008461299FBF7D7FB159806
:1053F0001499FDF779FD02F0F7FA13988DF8BF00C4
:10540000309040F23461C2F20001129A0A73FFE751
:10541000FFE75EE040F23460C2F20000007B01284A
:1054200056D1FFE741F26C30C2F20000006890F8FC
:105430003E0000280CD0FFE79DF8BF00002807D1F0
:10544000FFE70020FDF796FF01208DF8BF00FFE782
:105450009DF8BF0000283AD0FFE730980130309027
:1054600041F26C30C2F20000006890F83E00002863
:1054700007D0FFE700201090FDF77CFF10983090D8
:10548000FFE73098B0F57A7F20D3FFE706200021B0
:105490000F91FBF783FB41F28030C2F20000042140
:1054A0000E900D91FDF720FD0F980F99FBF776FBFD
:1054B0000E980D99FDF718FD0F988DF8BF003090EC
:1054C00040F23461C2F200010873FFE7FFE7FFE733
:1054D000FFE740F23460C2F20000007B012840F098
:1054E0006982FFE741F20000C4F202000821FCF7E4
:1054F0002FF8002809D1FFE79DF8BE00002804D14D
:10550000FFE701208DF8BE00FFE79DF8BE000028F0
:1055100041D0FFE72E9801302E9041F20000C4F2F6
:1055200002000821FCF714F8002803D1FFE700204F
:105530002E90FFE72E98B0F57A7F2BD3FFE7062059
:1055400020210C90FBF72AFB41F28030C2F20000D0
:1055500004210B900A91FDF7C7FC4FF4FA7001F09B
:1055600041FB099002F040FA02200C99089008468D
:105570000899FBF713FB0B980A99FDF7B5FC00207F
:105580008DF8BE002E9040F23460C2F200000899FF
:105590000173FFE7FFE741F26C30C2F200000168DF
:1055A000496A40F23462C2F2000211600168896AFD
:1055B00051600068406AFBF74CF841EC100B9FED1E
:1055C000DE1B53EC112B51EC100BFBF727F80028D6
:1055D00046D1FFE741F26C30C2F200000068406A39
:1055E000FBF737F841EC100B9FEDD51B53EC112B5B
:1055F00051EC100BFAF7DCFF002831D1FFE741F244
:105600006C30C2F200000068806AFBF722F841ECBF
:10561000100B9FEDCD1B53EC112B51EC100BFAF737
:10562000FDFF00281CD1FFE741F26C30C2F2000000
:105630000068806AFBF70DF841EC100B9FEDC41B6E
:1056400053EC112B51EC100BFAF7B2FF002807D1E5
:10565000FFE740F23460C2F2000041218160A7E11F
:1056600041F26C30C2F200000068406AFAF7F1FFC4
:1056700041EC100B9FEDB01B53EC112B51EC100BB8
:10568000FAF7CCFF002846D1FFE741F26C30C2F2B6
:1056900000000068406AFAF7DCFF41EC100B9FED58
:1056A000A81B53EC112B51EC100BFAF781FF0028CB
:1056B00031D1FFE741F26C30C2F200000068806A2D
:1056C000FAF7C7FF41EC100B9FEDA31B53EC112B16
:1056D00051EC100BFAF7A2FF00281CD1FFE741F2B2
:1056E0006C30C2F200000068806AFAF7B2FF41EC49
:1056F000100B9FED9B1B53EC112B51EC100BFAF789
:1057000057FF002807D1FFE740F23460C2F20000E3
:10571000422181604BE141F26C30C2F2000000682E
:10572000406AFAF796FF41EC100B9FED831B53EC98
:10573000112B51EC100BFAF771FF00282AD1FFE76B
:1057400041F26C30C2F200000068406AFAF781FF53
:1057500041EC100B9FED7A1B53EC112B51EC100B0D
:10576000FAF726FF002815D1FFE741F26C30C2F2AC
:1057700000000068806AFAF76CFF41EC100B9FEDA7
:105780007A1B53EC112B51EC100BFAF72CFF00286D
:1057900015D1FFE741F26C30C2F200000068806A68
:1057A000FAF757FF41EC100B9FED711B53EC112BD7
:1057B00051EC100BFAF732FF002807D1FFE740F257
:1057C0003460C2F2000043218160EFE041F26C30AE
:1057D000C2F200000068406AFAF73BFF41EC100B90
:1057E0009FED551B53EC112B51EC100BFAF716FFE4
:1057F000002846D1FFE741F26C30C2F20000006899
:10580000406AFAF726FF41EC100B9FED4D1B53EC5D
:10581000112B51EC100BFAF7CBFE002831D1FFE72A
:1058200041F26C30C2F200000068806AFAF711FFA2
:1058300041EC100B9FED501B53EC112B51EC100B56
:10584000FAF7ECFE00281CD1FFE741F26C30C2F2FF
:1058500000000068806AFAF7FCFE41EC100B9FED37
:10586000481B53EC112B51EC100BFAF7A1FE00284A
:1058700007D1FFE740F23460C2F2000044218160AA
:1058800093E041F26C30C2F200000068406AFAF71F
:10589000E0FE41EC100B9FED301B53EC112B51EC53
:1058A000100BFAF7BBFE00281CD1FFE741F26C3069
:1058B000C2F200000068406AFAF7CBFE41EC100B20
:1058C0009FED271B53EC112B51EC100BFAF770FED8
:1058D000002807D1FFE740F23460C2F20000452102
:1058E000816061E041F26C30C2F200000068406A01
:1058F000FAF7AFFE41EC100B9FED1F1B53EC112B81
:1059000051EC100BFAF78AFE00284CD1FFE741F268
:105910006C30C2F200000068406AFAF79AFE41EC6F
:10592000100B9FED171B53EC112B51EC100BFAF7DA
:105930003FFE002837D12FE00000000000002E407D
:105940000000000000002EC00000000000003E40EB
:105950000000000000003EC000000000008051C0B8
:105960000000000000805BC00000000000C062403A
:105970000000000000C062C00000000000805B402A
:1059800000000000008051400000000000002E4098
:105990000000000000002EC040F23460C2F200009F
:1059A00046218160FFE7FFE7FFE7FFE7FFE7FFE74B
:1059B00000F094BD40F23460C2F20000007B022887
:1059C00040F04D82FFE741F20000C4F202000821DE
:1059D000FBF7BEFD002809D1FFE79DF8B7000028BE
:1059E00004D1FFE701208DF8B700FFE79DF8B7006D
:1059F000002842D0FFE72C9801302C9041F20000A3
:105A0000C4F202000821FBF7A3FD002803D1FFE741
:105A100000202C90FFE72C98B0F57A7F2CD3FFE77D
:105A2000062030210790FBF7B9F841F28030C2F22E
:105A30000000042106900591FDF756FA4FF4FA7024
:105A400001F0D0F80321079A049010460391FBF768
:105A5000A5F806980599FDF747FA01F0C5FF002063
:105A60008DF8B7002C908DF8AF0040F23460C2F290
:105A7000000003990173FFE7FFE79DF8AF000028DE
:105A80005BD0FFE741F26C30C2F200000068406A70
:105A9000FAF7DFFD41EC100B1FED591B53EC112BF6
:105AA00051EC100BFAF7BAFD002846D1FFE741F29E
:105AB0006C30C2F200000068406AFAF7CAFD41EC9F
:105AC000100B1FED611B53EC112B51EC100BFAF76F
:105AD0006FFD002831D1FFE741F26C30C2F20000C7
