:020000040800F2
:100000009031002021020008B91E0008A91A00083A
:10001000851D00088B03000829230008000000004C
:10002000000000000000000000000000890100083E
:10003000B103000800000000CD010008F11E000817
:100040003B0200083B0200083B0200083B0200089C
:100050003B0200083B0200083B0200083B0200088C
:100060003B0200083B0200083B0200083B0200087C
:100070003B0200083B0200083B0200089103000815
:10008000A10300083B0200083B0200083B020008F5
:100090003B0200083B0200083B0200083B0200084C
:1000A0003B0200083B0200083B0200083B0200083C
:1000B0003B0200083B0200088D1F00083B020008BD
:1000C0003B0200083B0200083B0200083B0200081C
:1000D0003B02000809230008192300083B0200081E
:1000E0003B0200083B0200083B02000800F002F857
:1000F00000F03AF80AA090E8000C82448344AAF188
:100100000107DA4501D100F02FF8AFF2090EBAE885
:100110000F0013F0010F18BFFB1A43F0010318473B
:10012000BC310000DC310000103A24BF78C878C12F
:10013000FAD8520724BF30C830C144BF04680C60ED
:10014000704700000023002400250026103A28BF35
:1001500078C1FBD8520728BF30C148BF0B60704739
:100160001FB51FBD10B510BD00F0D6F81146FFF742
:10017000F7FF02F0FCF800F0F4F803B4FFF7F2FF29
:1001800003BC00F0FBF80000224B19680868B0E8D7
:10019000F00F80F30988BFF36F8F4FF0000080F3FA
:1001A00011884EF00D0E70470000000006480068F0
:1001B000006880F3088862B661B6BFF34F8FBFF363
:1001C0006F8F00DF00BF00BF08ED00E0EFF3098094
:1001D000BFF36F8F0F4B1A6820E9F00F106008B55E
:1001E0004FF0500080F31188BFF34F8FBFF36F8F34
:1001F00002F0B4FD4FF0000080F31188BDE8084024
:1002000019680868B0E8F00F80F30988BFF36F8FB2
:10021000704700BF1C000020EFF30580704700000E
:100220000948804709480047FEE7FEE7FEE7FEE78A
:10023000FEE7FEE7FEE7FEE7FEE7FEE704480549C6
:10024000054A064B704700008B1F0008ED000008B0
:10025000901100209031002090210020902100205A
:1002600010B5203AC0F00B80B1E81850203AA0E851
:100270001850B1E81850A0E81850BFF4F5AF5FEA85
:10028000027C24BFB1E81850A0E8185044BF18C938
:1002900018C0BDE810405FEA827C24BF51F8043BDF
:1002A00040F8043B08BF7047D20728BF31F8023B33
:1002B00048BF11F8012B28BF20F8023B48BF00F8C7
:1002C000012B70474FF0000200B513469446964646
:1002D000203922BFA0E80C50A0E80C50B1F1200159
:1002E000BFF4F7AF090728BFA0E80C5048BF0CC007
:1002F0005DF804EB890028BF40F8042B08BF704765
:1003000048BF20F8022B11F0804F18BF00F8012BD6
:100310007047704770477047754600F02BF8AE463F
:1003200005006946534620F00700854618B020B501
:10033000FFF784FFBDE820404FF000064FF00007B4
:100340004FF000084FF0000B21F00701AC46ACE87D
:10035000C009ACE8C009ACE8C009ACE8C0098D46EA
:10036000704710B50446AFF300802046BDE810404A
:10037000FFF703BF004870472C11002001491820E7
:10038000ABBEFEE726000200704700BFFEE700009C
:1003900010B5024800F09CF810BD00006C0300206E
:1003A00010B5024800F094F810BD0000B003002022
:1003B0007047014600BF00BF0A1EA1F10101FAD13A
:1003C000704772B600BFFEE70146002291F8210097
:1003D000022808D00420886300BF002081F8200094
:1003E00000BF012070470868006820F00E000B680D
:1003F00018600868006820F001000B68186091F828
:10040000403001209840CB6B5860012081F82100DA
:1004100000BF002081F8200000BF1046E2E7000086
:1004200070B50446002594F82100022803D004206A
:10043000A063012548E02068006820F00E002168D4
:1004400008602068006820F00100216808601F49EA
:100450002068884201D1012026E01C49143120681F
:10046000884201D110201FE01849283120688842B5
:1004700001D1801518E015493C312068884201D12E
:10048000801411E0114950312068884202D14FF4A4
:10049000803009E00D4964312068884202D14FF470
:1004A000801001E04FF08070084908394860012051
:1004B00084F8210000BF002084F8200000BF606B9A
:1004C00010B12046616B8847284670BD0800024085
:1004D00070B50446E06B05682068066894F8401023
:1004E000042088402840002846D006F00400002858
:1004F00042D02068006800F0200028B92068006819
:1005000020F004002168086057492068884201D122
:10051000042027E0544914312068884201D140204A
:1005200020E0514928312068884201D1001519E0A6
:100530004D493C312068884202D14FF4804011E09F
:10054000494950312068884202D14FF4802009E0A7
:10055000454964312068884202D14FF4800001E0AF
:100560004FF08060404908394860E06A00287AD03E
:100570002046E16A884776E094F8401002208840DF
:100580002840A0B306F0020088B32068006800F09D
:10059000200040B92068006820F00A002168086047
:1005A000012084F8210030492068884201D10220CE
:1005B00028E02D4914312068884201D1202021E013
:1005C000294928312068884201D140151AE026497E
:1005D0003C312068884202D14FF4005012E0224999
:1005E00050312068884203D14FF400300AE017E010
:1005F0001D4964312068884202D14FF4001001E0A7
:100600004FF0007018490839486000BF002084F896
:10061000200000BFA06A30B32046A16A884722E0CC
:1006200094F84010082088402840E0B106F0080007
:10063000C8B12068006820F00E002168086094F8B6
:10064000401001208840E16B48600120A06384F8DD
:10065000210000BF002084F8200000BF206B10B1F3
:100660002046216B884770BD0800024001460022E9
:1006700009B901207047164B0868C01A1423B0FB53
:10068000F3F08000086412480838C863022081F83B
:1006900021000868026843F6F0708243D1E9010343
:1006A0001843CB6818430B6918434B6918438B698F
:1006B0001843CB691843024308680260002088632E
:1006C000012081F82100002081F8200000BFD1E73F
:1006D000080002402DE9F8470346002294466EE1E7
:1006E0004FF0010808FA02F4D1F8008008EA04008B
:1006F000A0427DD1DFF8DCA2D1F80480A8EB0A0982
:10070000D0453AD014DCB8F1030F50D009DCB8F171
:10071000000F31D0B8F1010F1CD0B8F1020F49D150
:1007200020E0B8F1110F18D0B8F1120F42D11EE03D
:10073000B9F5881F25D006DCB9F5803F20D0B9F582
:10074000801F37D11AE0B9F5001F18D0B9F5041F82
:1007500030D117E0D1F80CC02DE0D1F80C8008F1B1
:10076000040C28E0D1F80C8008F1080C23E0D1F843
:100770000C8008F10C0C1EE000BF00BF00BF00BFE2
:1007800000BF00BFD1F80880B8F1000F02D14FF0D0
:10079000040C0BE0D1F80880B8F1010F03D14FF041
:1007A000080C1C6102E04FF0080C5C6103E04FF0A4
:1007B000000C00E000BF00BFFF2801D8984601E010
:1007C00003F104084646FF2802D84FEA820803E0F6
:1007D000A2F108084FEA88084746D6F800804FF093
:1007E0000F0909FA07F928EA09080CFA07F900E0E5
:1007F00088E048EA0908C6F80080D1F8048008F0CB
:100800008058B8F1805F7DD100BFDFF8CC81D8F887
:10081000188048F00108DFF8C091C9F81880C84670
:10082000D8F8188008F00108CDF8008000BF00BF9C
:100830004FEAB9384FEA920958F829504FEA8278BE
:100840004FEA18794FF00F0808FA09F825EA080569
:10085000DFF88881434502D14FF0000816E0DFF849
:100860008081434502D14FF001080FE0DFF8748129
:10087000434502D14FF0020808E0DFF86C814345A0
:1008800002D14FF0030801E04FF004084FEA8279EB
:100890004FEA197908FA09F848EA0505DFF84C81AA
:1008A0004FEA920948F82950D1F8048008F48018DA
:1008B000B8F5801F0AD1DFF83881D8F8008048EAFF
:1008C0000008DFF82C91C9F8008009E0DFF82081EA
:1008D000D8F8008028EA0008DFF81491C9F80080F1
:1008E000D1F8048008F40018B8F5001F10D1DFF823
:1008F000008108F10408D8F8008048EA0008DFF811
:10090000F09000E05AE009F10409C9F800800DE018
:10091000DFF8DC8008F10408D8F8008028EA000835
:10092000DFF8CC9009F10409C9F80080D1F80480FF
:1009300008F40038B8F5003F0ED1DFF8B480A8F114
:100940000408D8F8008048EA0008DFF8A490A9F16C
:100950000409C9F800800DE0DFF89480A8F10408CC
:10096000D8F8008028EA0008DFF88490A9F104098B
:10097000C9F80080D1F8048008F48038B8F5803FC9
:100980000ED1DFF86C80A8F10808D8F8008048EA9A
:100990000008DFF85C90A9F10809C9F800800DE0B3
:1009A000DFF84C80A8F10808D8F8008028EA000891
:1009B000DFF83C90A9F10809C9F80080521CD1F871
:1009C000008028FA02F8B8F1000F7FF489AEBDE884
:1009D000F8870000000011100010024000080140DC
:1009E000000C0140001001400014014008000140CB
:1009F00008040140024693680B400BB1012000E05F
:100A0000002070470AB1016101E00B0403617047E7
:100A100001480068704700000C000020034800688F
:100A20000349097808440149086070470C00002018
:100A30001400002010B50848006840F01000064976
:100A40000860032000F0E2F80F2000F007F800F043
:100A50005FF8002010BD0000002002402DE9F041A9
:100A600088B004460027B846002600BF2348C06966
:100A700040F004002149C8610846C06900F0040044
:100A8000019000BF00BF02A903A800F099F9069FDA
:100A90001FB900F0BDF9054602E000F0B9F94500C4
:100AA0001748B5FBF0F0A0F1010816481649086098
:100AB00040F2E7311448C160C0F8048000210161B0
:100AC0008160816100F030FC064696B90E4800F066
:100AD0005FFC06466EB91E2000F04AF8102C07D2C3
:100AE000002221461E2000F053F80848046000E070
:100AF0000126304608B0BDE8F08100000010024039
:100B000040420F0000080040F403002010000020C5
:100B100008B500BF1448806940F00100124988619F
:100B20000846806900F00100009000BF00BF00BFD0
:100B30000846C06940F08050C8610846C06900F0AE
:100B40008050009000BF00BF00220F21901E00F0D7
:100B50001FF800BF0549486820F0E06040F00070D1
:100B6000486000BF08BD00000010024000000140C6
:100B700001460846002809DB00F01F0301229A40C5
:100B800043099B0003F1E023C3F8002100BF704735
:100B90002DE9F05F80460D461646002701F0C6FBA2
:100BA000074639462A46334601F00700C0F1070AD6
:100BB000BAF1040F02D94FF0040A01E0C0F1070AAC
:100BC000D14600F1040ABAF1070F02D24FF0000A31
:100BD00001E0A0F1030AD4464FF0010A0AFA09FA2B
:100BE000AAF1010A0AEA020A0AFA0CFA4FF0010B0A
:100BF0000BFA0CFBABF1010B0BEA030B4AEA0B04FB
:100C00002146404601F09AFBBDE8F09F00BF00F08E
:100C10000702064B19684FF6FF031940044B0B43BC
:100C200043EA0221014B196000BF70470CED00E060
:100C30000000FA0570B504460D460CB9012070BDE0
:100C40005A48006800F00700A8420ED257480068D2
:100C500020F007002843554908600846006800F066
:100C60000700A84201D00120E9E7207800F0020047
:100C700002281DD1207800F00400042805D14C483A
:100C8000406840F4E0604A494860207800F008007D
:100C9000082805D14648406840F4605044494860FF
:100CA0004348406820F0F000A1680843404948608C
:100CB000207800F0010078B36068012806D13C4834
:100CC000006800F4003090B90120B8E7606802289D
:100CD00006D13748006800F0007040B90120AEE747
:100CE0003348006800F0020008B90120A7E7304847
:100CF000406820F00300616808432D494860FFF711
:100D000087FE064609E0FFF783FE801B41F288312B
:100D1000884202D9032092E707E02548406800F0A6
:100D20000C006168B0EB810FEDD12048006800F045
:100D30000700A8420ED91D48006820F0070028438C
:100D40001A4908600846006800F00700A84201D070
:100D5000012074E7207800F00400042807D114482B
:100D6000406820F4E060E168084311494860207859
:100D700000F00800082808D10D48406820F46050B1
:100D8000216940EAC1000A49486000F061F8084959
:100D90004968C1F30311074A515CC840064908601D
:100DA00006480068FFF75AFE002048E7002002408E
:100DB00000100240AE320008180000201000002091
:100DC0000F2202600D4A526802F0030242600B4A91
:100DD000526802F0F0028260084A526802F4E0624F
:100DE000C260064A526802F46052D2080261044AA4
:100DF000126802F007020A6070470000001002400B
:100E000000200240014800687047000018000020E0
:100E100000B5FFF7F7FF04494968C1F30221034A0F
:100E2000515CC84000BD000000100240BE32000806
:100E300000B5FFF7E7FF04494968C1F3C221034A3F
:100E4000515CC84000BD000000100240BE320008E6
:100E500070B500210022002400230020134D696892
:100E600001F00C05F5B1042D02D0082D19D101E0D7
:100E70000F4819E00F4DC1F38346AB5D01F4803597
:100E800055B10A4D6D68C5F340450B4E725D084D76
:100E90005D43B5FBF2F402E0084D03FB05F4204688
:100EA00002E000BF024800BF00BF70BD001002405A
:100EB00000127A009C320008AC32000800093D00A4
:100EC000F8B504460CB90120F8BD207800F0010007
:100ED000002878D0F848406800F00C0004280CD0B6
:100EE000F548406800F00C00082811D1F24840682D
:100EF00000F48030B0F5803F0AD1EF48006800F47C
:100F0000003000285FD0606800285CD10120DBE75A
:100F100000BF6068B0F5803F06D1E748006840F444
:100F20008030E549086028E0606858B9E248006808
:100F300020F48030E04908600846006820F48020F2
:100F400008601AE06068B0F5A02F0BD1DA4800689D
:100F500040F48020D84908600846006840F480309A
:100F600008600AE0D448006820F48030D249086064
:100F70000846006820F48020086000BF606888B1DF
:100F8000FFF746FD054606E0FFF742FD401B6428DB
:100F900001D9032098E7C848006800F40030002811
:100FA000F2D010E0FFF734FD054606E0FFF730FD14
:100FB000401B642801D9032086E7BF48006800F47D
:100FC00000300028F2D1207800F00200022857D12A
:100FD000B948406800F00C0050B1B748406800F0D4
:100FE0000C00082818D1B448406800F4803098B943
:100FF000B148006800F0020020B12069012801D04A
:10100000012061E7AC48006820F0F800616940EA1F
:10101000C100A949086033E02069E8B10120A7496F
:101020000860FFF7F5FC054606E0FFF7F1FC401B02
:10103000022801D9032047E79F48006800F002001A
:101040000028F2D09C48006820F0F800616940EA6E
:10105000C1009949086013E0002098490860FFF733
:10106000D7FC054606E0FFF7D3FC401B022801D958
:10107000032029E79048006800F002000028F2D120
:10108000207800F0080008282DD1A069B8B101200F
:101090008B490860FFF7BCFC054606E0FFF7B8FC8B
:1010A000401B022801D903200EE78348406A00F064
:1010B00002000028F2D0012000F000FF13E0002021
:1010C0007F490860FFF7A4FC054606E0FFF7A0FC97
:1010D000401B022801D90320F6E67748406A00F059
:1010E00002000028F2D1207800F00400042873D117
:1010F00000277148C06900F0805070B900BF6E4889
:10110000C06940F080506C49C8610846C06900F071
:101110008050009000BF00BF01276A48006800F4BB
:101120008070B0B96748006840F480706549086015
:10113000FFF76EFC054606E0FFF76AFC401B6428DB
:1011400001D90320C0E65F48006800F480700028E1
:10115000F2D000BFE068012806D15748006A40F08D
:1011600001005549086227E0E06858B95248006A12
:1011700020F00100504908620846006A20F004008F
:10118000086219E0E06805280BD14B48006A40F07E
:101190000400494908620846006A40F001000862FC
:1011A0000AE04548006A20F0010043490862084609
:1011B000006A20F00400086200BFE068A0B1FFF7F9
:1011C00027FC054609E0FFF723FC401B41F288316C
:1011D000884202D9032077E622E03748006A00F00F
:1011E00002000028EFD012E0FFF712FC054608E0ED
:1011F000FFF70EFC401B41F28831884201D90320E1
:1012000062E62D48006A00F002000028F0D1012FAC
:1012100005D12948C06920F080502749C86100BF26
:10122000E069C8B32448406800F00C00082860D08A
:10123000E069022848D1002020490866FFF7E8FB52
:10124000054606E0FFF7E4FB401B022801D9032016
:101250003AE61948006800F000700028F2D1206AD0
:10126000B0F5803F07D11448406820F40030A168F1
:10127000084311494860D4E9080108430E49496808
:1012800021F4741108430C49486001200B49086699
:10129000FFF7BEFB054607E03DE0FFF7B9FB401B4B
:1012A000022801D903200FE60348006800F000700F
:1012B0000028F2D02FE0000000100240000042425F
:1012C0008004424200700040002014490866FFF785
:1012D0009FFB054606E0FFF79BFB401B022801D958
:1012E0000320F1E50E48006800F000700028F2D1FC
:1012F00011E0E069012800D1E6E50948466806F4F6
:101300008031206A814204D106F47011606A814202
:1013100001D00120D8E50020D6E5000000004242BF
:10132000001002407047704710B504460CB9012008
:1013300010BD94F83D0028B9002084F83C002046F8
:1013400000F025F8022084F83D00211D206800F0FF
:1013500025FE012084F8460000BF84F83E000121EC
:101360003F200155402001554120015500BF00BFDD
:10137000012084F8420043200155442001554520B6
:10138000015500BF012084F83D000020D0E77047E0
:10139000014691F83D00012801D00120704702204C
:1013A00081F83D000868C06840F001000B68D86013
:1013B000124B086898420BD00868B0F1804F07D0F4
:1013C0000F4B0868984203D00E4B086898420CD126
:1013D0000868806800F00702062A0CD008680068D8
:1013E00040F001000B68186005E00868006840F0F4
:1013F00001000B6818600020D0E70000002C0140BD
:101400000004004000080040704710B50446206802
:101410000069C0F34000D8B12068C068C0F3400044
:10142000B0B16FF0020021680861012020772068C8
:10143000806900F0030018B12046FFF7E5FF05E0E2
:10144000204600F0ADF8204600F0ABF800202077F1
:1014500020680069C0F38000D8B12068C068C0F37C
:101460008000B0B16FF0040021680861022020778D
:101470002068806900F4407018B12046FFF7C4FF6F
:1014800005E0204600F08CF8204600F08AF80020A5
:10149000207720680069C0F3C000D8B12068C06818
:1014A000C0F3C000B0B16FF00800216808610420EB
:1014B00020772068C06900F0030018B12046FFF7CC
:1014C000A3FF05E0204600F06BF8204600F069F825
:1014D0000020207720680069C0F30010D8B1206890
:1014E000C068C0F30010B0B16FF01000216808614F
:1014F000082020772068C06900F4407018B12046A9
:10150000FFF782FF05E0204600F04AF8204600F091
:1015100048F8002020772068006900F0010058B1E9
:101520002068C06800F0010030B16FF00100216850
:101530000861204600F036F820680069C0F3C0104A
:1015400058B12068C068C0F3C01030B16FF080009F
:10155000216808612046FFF7E5FE20680069C0F3B6
:10156000801058B12068C068C0F3801030B16FF0AF
:10157000400021680861204600F020F820680069DA
:10158000C0F3401058B12068C068C0F3401030B1BB
:101590006FF02000216808612046FFF7C4FE10BDEF
:1015A0007047704710B5044603492068884201D14E
:1015B000FFF734FA10BD0000000800407047704784
:1015C000704700002DE9F84F044620680568206840
:1015D000C668206847694FF00009CA4605F00F0940
:1015E000B9F1000F0AD105F0200038B106F0200053
:1015F00020B1204600F05CFDBDE8F88FB9F1000F86
:101600007BD007F0010018B906F49070002874D060
:1016100005F0010030B106F4807018B1606C40F044
:101620000100606405F0040030B107F0010018B15A
:10163000606C40F00200606405F0020030B107F019
:10164000010018B1606C40F00400606405F008000F
:1016500048B106F0200010B907F0010018B1606C25
:1016600040F008006064606C002845D005F0200060
:1016700028B106F0200010B1204600F019FD2068C6
:101680004069C0F3801A606C00F0080010B9BAF12C
:10169000000F2CD0204600F0C5FC2068406900F007
:1016A000400000B300BF00BF2168143151E8001FA3
:1016B00021F040002168143141E80002002AF3D1F2
:1016C00000BFE06B50B17748E16B4863E06BFEF719
:1016D000A7FE88B1E06B416B88470DE02046FFF71D
:1016E0006FFF09E009E02046FFF76AFF04E02046AB
:1016F000FFF766FF002060647EE7206B012877D14A
:1017000005F01000002873D006F010000028FAD071
:1017100000BF0020009020680068009020684068AA
:10172000009000BF00BF2068406900F04000002822
:101730005FD0E06B006840681FFA80F8B8F1000FD6
:1017400055D0A08D404552DDA4F82E80E06B806915
:10175000202843D000BF00BF21680C3151E8001F92
:1017600021F4807021680C3141E80002002AF3D195
:1017700000BF00BF00BF2168143151E8001F21F0F5
:1017800001002168143141E80002002AF3D100BFB2
:1017900000BF00BF2168143151E8001F21F0400054
:1017A0002168143141E80002002AF3D100BF202053
:1017B00084F842000020206300BF00BF21680C3184
:1017C00051E8001F21F0100021680C3141E80002AF
:1017D000002AF3D100BFE06BFEF7F6FD0220606344
:1017E000A08DE28D801A81B22046FFF7E8FE03E764
:1017F00042E0A08DE18D401A1FFA80F8E08DD0B351
:10180000B8F1000F37D000BF00BF21680C3151E89C
:10181000001F21F4907021680C3141E80002002A79
:10182000F3D100BF00BF00BF2168143151E8001F91
:1018300021F001002168143141E80002002AF3D1AF
:1018400000BF202084F842000020206300BF00BFBA
:1018500021680C3151E8001F21F0100021680C3183
:1018600041E80002002AF3D100BF02206063414634
:101870002046FFF7A4FEBFE605F0800030B106F079
:10188000800018B1204600F00FFDB5E605F04000DD
:1018900030B106F0400018B1204600F0F9FBABE68D
:1018A00000BFA9E61120000810B504460CB90120BC
:1018B00010BDA06900B100E000BF94F8410028B954
:1018C000002084F84000204600F02AF8242084F804
:1018D00041002068C06820F400502168C86020469C
:1018E00000F064FC2068006920F4904021680861E1
:1018F0002068406920F02A00216848612068C0689B
:1019000040F400502168C86000206064202084F802
:10191000410084F842000020606300BFC8E7000077
:1019200010B586B004460020029003900490059004
:1019300055492068884250D100BF5448806940F41E
:101940008040524988610846806900F480400190D7
:1019500000BF00BF00BF0846806940F004008861F6
:101960000846806900F00400019000BF00BF4815E0
:101970000290022003900320059002A94448FEF73C
:10198000A9FE4FF48060029000200390049002A909
:101990003F48FEF79FFE3F483F49086000204860EF
:1019A00000213D4881608021C160002101614161C9
:1019B0008161C161FEF75AFE08B1FEF702FD00BF6A
:1019C0003548E063446200BF002205212520FFF76F
:1019D000DFF82520FFF7CCF853E030492068884233
:1019E0004FD100BF2948C06940F400302749C86181
:1019F0000846C06900F40030019000BF00BF00BF7E
:101A00000846806940F0040088610846806900F05B
:101A10000400019000BF00BF042002900220039048
:101A20000320059002A91A48FEF754FE08200290F0
:101A300000200390049002A91548FEF74BFE1548BC
:101A40001430174908600020486000211448816064
:101A50008021C1600021016141618161C161FEF7A6
:101A600005FE08B1FEF7ADFC00BF0D48E06344621F
:101A700000BF002205212620FFF78AF82620FFF765
:101A800077F806B010BD0000003801400010024099
:101A900000080140580002406C0300200044004050
:101AA000B00300207047704700BFFEE72DE9F05FEC
:101AB00006460F4690469946DDE90AAB3B2000F00A
:101AC00066F844B23C2000F062F845B245EA0420D2
:101AD00030803D2000F05BF844B23E2000F057F823
:101AE00045B245EA042038803F2000F050F844B267
:101AF000402000F04CF845B245EA0420A8F8000068
:101B0000432000F044F844B2442000F040F845B2CD
:101B100045EA0420A9F80000452000F038F844B256
:101B2000462000F034F845B245EA0420AAF8000047
:101B3000472000F02CF844B2482000F028F845B2C5
:101B400045EA0420ABF80000BDE8F09F10B5752011
:101B500000F01DF810BD10B500F016F901216B2042
:101B600000F034F800216C2000F030F80921192031
:101B700000F02CF806211A2000F028F818211B206C
:101B800000F024F818211C2000F020F810BD70B5DA
:101B9000044600F05BF9D02000F043F900F00CF9A6
:101BA000204600F03EF900F007F900F04FF9D1208F
:101BB00000F037F900F000F900F00DF905460120BA
:101BC00000F023F900F050F9284670BD70B50546C5
:101BD0000C4600F03BF9D02000F023F900F0ECF8BF
:101BE000284600F01EF900F0E7F8204600F019F949
:101BF00000F0E2F800F038F970BD000008B500BF51
:101C00000E48406940F001000C49486108464069AF
:101C100000F00100009000BF00BF002205210F204E
:101C2000FEF7B6FF0F20FEF7A3FF002205211020CC
:101C3000FEF7AEFF1020FEF79BFF08BD001002402C
:101C400000B595B01C2212490EA8FEF709FB002131
:101C50000EA800F0DEFB0F4908601C220C491C3165
:101C600007A8FEF7FDFA002107A800F0D2FB0A49F9
:101C700008601C22064938316846FEF7F1FA002157
:101C8000684600F0C6FB0549086015B000BD0000BD
:101C90004832000800000020040000200800002056
:101CA00000B585B00020019002900390049000BF21
:101CB0001648806940F02000144988610846806910
:101CC00000F02000009000BF00BF00BF0846806900
:101CD00040F0040088610846806900F0040000902C
:101CE00000BF00BF002203210948FEF78BFE03203E
:101CF000019011200290002003900320049001A97C
:101D00000348FEF7E7FC05B000BD000000100240EC
:101D10000008014010B50B480B4908604FF4E13052
:101D20004860002108488160C16001610C21416167
:101D300000218161C161FFF7B7FD08B1FEF741FBEA
:101D400010BD000000380140DC02002010B50B4837
:101D50000B4908604FF4E130486000210848816079
:101D6000C16001610C21416100218161C161FFF706
:101D70009BFD08B1FEF725FB10BD000000440040AC
:101D80002403002000BFFEE710B5012211460248DF
:101D9000FEF738FE10BD00000008014010B501211B
:101DA0000448FEF727FE04461420FEF702FB2046F7
:101DB00010BD00000008014010B5012000F06EF8D1
:101DC000012000F05DF8FFF7E9FF0446002000F075
:101DD00057F8204610BD70B50025012000F05EF8D0
:101DE00000240EE0012000F04BF8FFF7D7FF012898
:101DF00002D1802020410543002000F041F8601C02
:101E0000C4B2082CEEDB284670BD10B5044620464F
:101E100000F044F8012000F033F8002000F030F822
:101E200010BD70B5054600240DE08021214101EA76
:101E3000050000F033F8012000F022F8002000F047
:101E40001FF8601CC4B2082CEFDB70BD10B5012078
:101E500000F024F8012000F013F8002000F01EF834
:101E6000002000F00DF810BD10B5002000F016F8AD
:101E7000012000F005F8012000F010F810BD00006E
:101E800010B50446224602210348FEF7BBFD14208C
:101E9000FEF78FFA10BD00000008014010B504469F
:101EA000224601210348FEF7ADFD1420FEF781FA1A
:101EB00010BD00000008014000BFFEE708B508495A
:101EC0000968C9084FF47A72B1FBF2F141430091FD
:101ED00000BF00BF00994A1E00920029F9D108BD39
:101EE0001800002000BF012000F082FAFBE700008C
:101EF00010B500BF502080F31188BFF34F8FBFF3A0
:101F00006F8F00BF01F07AF818B14FF0805004498C
:101F1000086000BF002080F3118800BF10BD0000E2
:101F200004ED00E000B58FB0282105A8FEF7CAF93E
:101F300014216846FEF7C6F90120059000040690BA
:101F4000002007900120099002200C90C1030D9100
:101F50004FF4E0110E9105A8FEF7B2FF08B1FEF7AD
:101F600030FA0F20009002200190002002904FF4E0
:101F7000806003900020049002216846FEF75AFE1C
:101F800008B1FEF71EFA0FB000BD704710B5024849
:101F9000FFF73BFA10BD0000F403002010B5026803
:101FA000184B984208D0B0F1804F05D0164B98429C
:101FB00002D0164B984203D122F070024B681A43AC
:101FC000104B984208D0B0F1804F05D00E4B98428C
:101FD00002D00E4B984203D122F44072CB681A43D0
:101FE00022F080034C6943EA040202608B68C362FA
:101FF0000B688362034B984201D10B690363012391
:10200000436110BD002C0140000400400008004066
:1020100070B505466C6A0020E085E0842046FFF735
:10202000CFFA70BD00BF00BF02680C3252E8002F2B
:1020300022F4907102680C3242E80013002BF3D1B5
:1020400000BF00BF00BF0268143252E8002F22F028
:1020500001010268143242E80013002BF3D100BFE3
:10206000016B01290ED100BF00BF02680C3252E89B
:10207000002F22F0100102680C3242E80013002BFE
:10208000F3D100BF202180F8421000210163704786
:1020900010B504462068C06820F040002168C86080
:1020A000202084F841002046FFF7FDFC002010BDF1
:1020B000F8B5044694F84200222875D1A068B0F51E
:1020C000805F0CD1206950B90025A66A206840685D
:1020D000C0F308003080A06A801CA06215E0A56AE9
:1020E0000026A068B0F5805F03D0A06828B92069F9
:1020F00018B920684068287004E02068406800F043
:102100007F002870A06A401CA062E08D401E80B253
:10211000E085002846D12068C06820F020002168B2
:10212000C8602068C06820F480702168C86020689A
:10213000406920F0010021684861202084F84200B5
:1021400000206063206B012826D10020206300BF9F
:1021500000BF21680C3151E8001F21F010002168F8
:102160000C3141E80002002AF3D100BF206800686A
:1021700000F0100010280AD100BF00200090206855
:102180000068009020684068009000BF00BFA18DEB
:102190002046FFF714FA02E02046FFF783FC0020F8
:1021A000F8BD01E00020FBE70220F9E770B5044626
:1021B0002168096921F44051E268114322681161E4
:1021C0002269A1681143626941EA02052168C96870
:1021D00041F20C62914329432268D1602168496928
:1021E00021F44071A2691143226851612D4A21688E
:1021F000914202D1FEF71CFE01E0FEF709FE00EB62
:10220000C00101EB001162689200B1FBF2F100EB3A
:10221000C00202EB001263689B00B2FBF3F264237E
:10222000B2FBF3F202EBC20303EB0212A1EB820159
:10223000322202EB01116422B1FBF2F101F0F00154
:1022400000EBC00202EB001263689B00B2FBF3F2EA
:102250006423B2FBF3F201EB021200EBC00101EBCD
:10226000001163689B00B1FBF3F100EBC00303EBCB
:1022700000136668B600B3FBF6F36426B3FBF6F30F
:1022800003EBC30606EB0313A1EB8301322303EB3D
:1022900001116423B1FBF3F101F00F011144226835
:1022A000916070BD00380140014691F8410021283D
:1022B00028D18868B0F5805F0BD1086948B90A6AEF
:1022C0001088C0F308000B685860086A801C086218
:1022D00005E00B6A581C086218780B685860C88CB7
:1022E000401E80B2C88458B90868C06820F08000D9
:1022F0000B68D8600868C06840F040000B68D86080
:10230000002070470220FCE710B50248FFF75AF999
:1023100010BD0000DC02002010B50248FFF752F9A2
:1023200010BD00002403002000BFFEE70248006843
:10233000C0F30220704700000CED00E010B500284B
:1023400004DB0A07130E054A135406E00A07140EAD
:10235000034A00F00F031B1FD45410BD00E400E03B
:1023600018ED00E002E0012000F042F8FBE7FEF784
:1023700061FBFFF7D7FDFFF793FCFFF73FFCFFF78B
:10238000C9FCFFF7E3FCFFF75BFC00F03DF800BF82
:10239000FEE701460020842901D0CA1C1044704782
:1023A0001CB54FF4FA6000F023F8FFF7D4FB00BF30
:1023B000FFF7CCFB6828FBD10CE007480749084B26
:1023C000084ACDE9001008490848FFF76FFB642070
:1023D00000F00EF8F1E700008600002084000020E5
:1023E00082000020800000207E0000207C00002071
:1023F00070B5044625460DB1294600E00121084686
:1024000000F01EFC002070BD10B500F047FC00205D
:1024100010BD7FB504460D46606998B1A06988B1CA
:10242000B4F90800FFF7B5FF0646D4E90510CDE979
:10243000006102902B462269D4E9001000F082FD71
:10244000039013E0B4F90800FFF7A3FF064603A8C2
:10245000CDE90060238A9AB22B46D4E9001000F03F
:102460003FFD012802D0002004B070BD0398FBE7B7
:102470002DE9F04105460E461C4807681C480068D7
:10248000001D00F0E1FA50B91948006890F82C10CE
:102490000120884017490968814316480160681C7B
:1024A00038B936B112480168091D134800F016FB0F
:1024B0001AE07C190E4800684460BC4207D20C4800
:1024C0000168091D0D48006800F0EEFA0CE00848AC
:1024D0000168091D0A48006800F0E6FA094800682A
:1024E000844201D207480460BDE8F081300000203A
:1024F0001C000020340000201805002024000020CB
:10250000200000204C00002010B5044600F0F2FA34
:1025100023480068401C224908602248006840B9EE
:10252000204804600846006801280DD100F03AF9FF
:102530000AE01D48006838B91A480068C06AE16AB4
:10254000884201D81748046018480068401C1749A1
:10255000086094F82C100120884015490968084348
:1025600013490860E16A01EB8101124A02EB810024
:10257000211D00F0B3FA00F0E7FA0B48006868B1DB
:1025800008480068C06AE16A884207D24FF080506C
:1025900009490860BFF34F8FBFF36F8F10BD000074
:1025A0002C0000201C0000203800002048000020E3
:1025B000340000203C04002004ED00E010B516E0DB
:1025C00000F098FA0C48C068C468201D00F03CFA7E
:1025D0000A480068401E0949086009480068401E12
:1025E0000749086000F0B0FA204600F00BF80448F4
:1025F00000680028E4D110BD040500202C00002054
:102600002800002010B5044694F8510030B9206B22
:1026100000F0B8FA204600F0B5FA1AE094F851003C
:10262000012803D1204600F0ADFA12E094F85100E1
:10263000022801D1012000E0002050B900BF502045
:1026400080F31188BFF34F8FBFF36F8F00BF00BFC0
:10265000FEE710BD30B54FF44063174800F00704A3
:102660002CB1C01D20F00700134C041B1B1B02469D
:10267000124C22600024114D6C60D018083820F0F4
:1026800007000F4C206000240D4D2D686C600C4D30
:102690002D682C601146441A4C60094C24680C606B
:1026A000084D4C682C60084D4C682C604FF000447D
:1026B000064D2C6030BD00002C0500205800002085
:1026C0006000002068000020640000206C000020F2
:1026D00000BFFFF773FF064800680128F9D94FF0E3
:1026E000805004490860BFF34F8FBFF36F8FF0E74E
:1026F0003C04002004ED00E02DE9FF5F81460F4619
:102700009246DDE90E6B109CAAF10100216B01EBF2
:10271000800828F0070808F0070008B9012000E049
:10272000002050B900BF502080F31188BFF34F8FB5
:10273000BFF36F8F00BF00BFFEE7002507E0795DA4
:1027400004F134004155785D00B902E06D1C102D94
:10275000F5D300BF002143200155072E00D30626E4
:10276000E66266640020A064201D00F09AF904F17E
:10277000180000F096F92461C6F10700A0616462B8
:102780000020E06484F8500049464046039A00F077
:1027900049F92060BBF1000F01D0CBF80040BDE843
:1027A000FF9F000010B5002407E004EB84010F4AEE
:1027B00002EB810000F068F9641C072CF5D30C488B
:1027C00000F062F90B4800F05FF90B4800F05CF98B
:1027D0000A4800F059F90A4800F056F90448094936
:1027E000086004480849086010BD00003C0400204F
:1027F000C8040020DC040020F004002004050020B0
:1028000018050020200000202400002010B50146FB
:10281000164800E0006803688B42FBD30246436819
:1028200013448B4204D143684C68234443600146FF
:102830000A464B6813440468A34211D10C4C036848
:102840002468A34208D04B680468646823444B6042
:1028500003681B680B6005E0054B1B680B6001E01B
:1028600003680B60884200D0016010BD5800002052
:10287000600000200A490968096809B9012100E0DF
:10288000002121B14FF0FF31064A116006E00449F2
:102890000968C968C868034A416811607047000048
:1028A000200000204C0000200E480068401C08B9A1
:1028B000012000E0002050B900BF502080F31188B3
:1028C000BFF34F8FBFF36F8F00BF00BFFEE700BFA6
:1028D000502080F31188BFF34F8FBFF36F8F00BF7D
:1028E00000BFFEE7700000202DE9F04104464FF0E4
:1028F000000800F02BFA4648006808B9FFF7AAFE66
:1029000044480068204000286BD1D4B1083404F05A
:102910000700B0B104F00700C0F10800044404F05F
:10292000070008B9012000E0002050B900BF502086
:1029300080F31188BFF34F8FBFF36F8F00BF00BFCD
:10294000FEE7002C4DD034480068844249D8334E0D
:102950003046056801E02E462D686868A04202D224
:1029600028680028F7D12A480068854239D03068A5
:1029700000F10808286830606868001B102819D921
:102980002F1907F0070008B9012000E0002050B916
:1029900000BF502080F31188BFF34F8FBFF36F8FBC
:1029A00000BF00BFFEE76868001B78606C603846B7
:1029B000FFF72CFF184968680968081A164908606B
:1029C0000846006816490968884203D21248006820
:1029D000134908600F496868096808436860002067
:1029E000286000F0AFFB08F0070008B9012000E004
:1029F000002050B900BF502080F31188BFF34F8FE3
:102A0000BFF36F8F00BF00BFFEE74046BDE8F08117
:102A1000600000206C0000206400002058000020AE
:102A200068000020001F4FF080730360001F21F03A
:102A300001030360001F034B036014380260203859
:102A400070470000A928000801460A69D1E9013051
:102A50009860D1E9010358605068884201D18868C4
:102A60005060002008611068401E106010687047B8
:102A7000034B0360034B0B6080231360704700001F
:102A800088000020DC00002000F1080141604FF0C8
:102A9000FF31816000F10801C16001610021016026
:102AA000704700210161704710B502460B685C1C3D
:102AB0000CB9106907E002F1080000E040684468C2
:102AC00024689C42FAD944684C604C68A1608860D4
:102AD00041600A611468641C146010BD42684A6059
:102AE00093688B60936859609160086103685B1C10
:102AF0000360704700BF502080F31188BFF34F8FF1
:102B0000BFF36F8F00BF0E480068401C0C4908607F
:102B100008460068012812D10A480068C0B208B906
:102B2000012000E0002050B900BF502080F3118840
:102B3000BFF34F8FBFF36F8F00BF00BFFEE770473B
:102B40007000002004ED00E00D48006850B900BF9F
:102B5000502080F31188BFF34F8FBFF36F8F00BFFA
:102B600000BFFEE706480068401E054908600846A9
:102B7000006820B9002080F3118800BF00BF7047B3
:102B80007000002070B506463546002E3FD0083D47
:102B90002C461F4960680968084008B1012000E020
:102BA000002050B900BF502080F31188BFF34F8F31
:102BB000BFF36F8F00BF00BFFEE7206808B9012098
:102BC00000E0002050B900BF502080F31188BFF30F
:102BD0004F8FBFF36F8F00BF00BFFEE70C496068E7
:102BE0000968084098B1206888B90949606809688F
:102BF0008843606000F0AAF80649606809680844E4
:102C0000044908602046FFF701FE00F09BFA70BD02
:102C10006C0000206400002000204FF0E0210861DB
:102C20008861064800684FF47A71B0FBF1F0401EED
:102C30004FF0E0214861072008617047180000202C
:102C400070B504460025D4B11248006808B90120C7
:102C500000E0002050B900BF502080F31188BFF37E
:102C60004F8FBFF36F8F00BF00BFFEE700F06EF81D
:102C700000212046FFF7FCFB00F064FA05463DB951
:102C80004FF0805004490860BFF34F8FBFF36F8F40
:102C900070BD00005400002004ED00E010B586B0C7
:102CA00000200590049003AA04A905A8FFF7E0FE00
:102CB0000022DDE904101346CDE9002102901CA199
:102CC0001D48039A00F03EF91C4908600846006858
:102CD00008B1012400E00024012C15D100BF5020D0
:102CE00080F31188BFF34F8FBFF36F8F00BF4FF09A
:102CF000FF30134908600120124908600020124982
:102D0000086000F071F810E0601C08B1012000E0DC
:102D1000002050B900BF502080F31188BFF34F8FBF
:102D2000BFF36F8F00BF00BFFEE706B010BD00000D
:102D300049444C4500000000D12600085000002006
:102D40004C000020380000203000002002480068BD
:102D5000401C014908607047540000201D4800686D
:102D600018B101201C49086032E000201A490860AF
:102D70001A480068B0FA80F0C0F11F0101EB810031
:102D8000174A52F8200008B1012000E0002050B995
:102D900000BF502080F31188BFF34F8FBFF36F8FB8
:102DA00000BF00BFFEE701EB81020D4B03EB820089
:102DB00042685268426000F108024368934202D1BF
:102DC0004268526842604268D268064B1A6000BF8F
:102DD0007047000054000020400000203400002014
:102DE0003C0400201C0000201CB53849084600782F
:102DF0000190FF200A4610700846007800909DF868
:102E0000000000F0F0009DF80020904201D1012068
:102E100000E0002050B900BF502080F31188BFF3BC
:102E20004F8FBFF36F8F00BF00BFFEE79DF800001C
:102E300000F05000264A10700720264A106009E072
:102E400024480068401E234A10609DF80000400698
:102E5000000E00909DF8000000F080008028EFD068
:102E60001C480068C0F10700042801D1012000E0DF
:102E7000002050B900BF502080F31188BFF34F8F5E
:102E8000BFF36F8F00BF00BFFEE71248006800026B
:102E9000104A10601046008800F4E06010600B4A91
:102EA000019810700C48006840F470000A490860EE
:102EB0000846006840F070400860FFF7ADFE002053
:102EC00006490860FDF772F900201CBD00E400E02F
:102ED000740000207800002020ED00E07000002049
:102EE0002DE9FF4F85B0804689461746DDE912ABD4
:102EF000B800FFF7F9FC064656B15420FFF7F4FC82
:102F000004460CB1266304E03046FFF73BFE00E0C8
:102F100000248CB1002084F85100CDE900ABCDE94C
:102F200002403A4649464046089BFFF7E5FB2046EB
:102F3000FFF7EAFA012501E04FF0FF35284609B016
:102F4000BDE8F08F2DE9F04F85B0074688469146E1
:102F50009A46DDE90EB6109C0EB1012000E000207B
:102F600050B900BF502080F31188BFF34F8FBFF3DB
:102F70006F8F00BF00BFFEE70CB1012000E0002012
:102F800050B900BF502080F31188BFF34F8FBFF3BB
:102F90006F8F00BF00BFFEE75420039003985428B2
:102FA00001D1012000E0002050B900BF502080F383
:102FB0001188BFF34F8FBFF36F8F00BF00BFFEE7D5
:102FC000B4B1AEB125462C462E63022085F85100DF
:102FD000002004A953464A46CDE900B1CDE902508C
:102FE00041463846FFF788FB2846FFF78DFA01E097
:102FF00000200490049805B0BDE8F08F2DE9F04161
:103000004FF0000844480068002877D14348006822
:10301000451C4248056015BB41480068006808B976
:10302000012000E0002050B900BF502080F311883B
:10303000BFF34F8FBFF36F8F00BF00BFFEE738486D
:1030400007683848006836490860364807603648DF
:103050000068401C34490860FFF70CFC00BF33488F
:10306000006885423CD300BF2D480068006808B95D
:10307000012000E0002020B14FF0FF302B49086014
:103080002DE027480068C068C4686668B54202D26F
:103090002648066023E0201DFFF7D6FCA06A18B181
:1030A00004F11800FFF7D0FC94F82C1001208840A0
:1030B0001F49096808431E490860E16A01EB810164
:1030C0001C4A02EB8100211DFFF708FD1A49E06A46
:1030D0000968C96A8842C7D34FF00108C4E700BF36
:1030E00015480068C06A00EB8000124951F82000C2
:1030F000012801D94FF0010805E0FFE70F480068FB
:10310000401C0E4908600E48006808B14FF00108E5
:103110004046BDE8F081000054000020300000204F
:103120002000002024000020440000204C0000204B
:10313000340000203C0400201C0000203C00002043
:103140004000002070B5002400263648006850B9C1
:1031500000BF502080F31188BFF34F8FBFF36F8FF4
:1031600000BF00BFFEE7FFF7C5FC2E480068401E09
:103170002C4908600846006800284FD12A4800689A
:1031800000284BD024E02948C068C46804F1180026
:10319000FFF75AFC201DFFF757FC94F82C10012074
:1031A000884023490968084321490860E16A01EB26
:1031B0008101204A02EB8100211DFFF78FFC1E498F
:1031C000E06A0968C96A884202D301201B49086085
:1031D0001648006808B9012000E000200028D2D07D
:1031E0000CB1FFF747FB1648056865B100BFFFF754
:1031F00005FF10B10120114908606D1E002DF6D1A8
:1032000000200F4908600D48006838B101263007DA
:103210000C490860BFF34F8FBFF36F8FFFF794FC2B
:10322000304670BD540000202C000020F004002027
:10323000340000203C0400201C000020400000203E
:103240003C00002004ED00E0C8320008E51E000844
:10325000FDFF0000000000008000000000000000F2
:1032600000000000D8320008A12300080000000080
:10327000000000000001000000000000000000004D
:10328000D4320008652300080000000000000000A0
:10329000000100000000000000000000020304051F
:1032A000060708090A0B0C0D0E0F10100102000092
:1032B00000000000000001020304060708090000E6
:1032C000000001020304000064656661756C7454BB
:1032D00061736B0066736D006D707500FC320008E1
:1032E0000000002088000000280100088433000846
:1032F00088000020083100004401000800000000A0
:1033000000000000000000000000000010000000AD
:10331000010000000024F400000000000000000094
:10332000000000000000000000000000000000009D
:10333000000000000000000000000000000000008D
:10334000000000000000000000000000000000007D
:10335000000000000000000000000000000000006D
:10336000000000000000000000000000AAAAAAAAB5
:10337000000000000000000000000000000000004D
:043380000000000049
:04000005080000ED02
:00000001FF
